{
  "contractName": "EIP712Base",
  "abi": [
    {
      "inputs": [],
      "name": "ERC712_VERSION",
      "outputs": [
        {
          "internalType": "string",
          "name": "",
          "type": "string"
        }
      ],
      "stateMutability": "view",
      "type": "function"
    },
    {
      "inputs": [],
      "name": "getDomainSeperator",
      "outputs": [
        {
          "internalType": "bytes32",
          "name": "",
          "type": "bytes32"
        }
      ],
      "stateMutability": "view",
      "type": "function"
    },
    {
      "inputs": [],
      "name": "getChainId",
      "outputs": [
        {
          "internalType": "uint256",
          "name": "",
          "type": "uint256"
        }
      ],
      "stateMutability": "view",
      "type": "function"
    }
  ],
  "bytecode": "0x608060405260008060006101000a81548160ff02191690831515021790555034801561002a57600080fd5b506102498061003a6000396000f3fe608060405234801561001057600080fd5b50600436106100415760003560e01c80630f7e59701461004657806320379ee5146100645780633408e47014610082575b600080fd5b61004e6100a0565b60405161005b9190610162565b60405180910390f35b61006c6100d9565b6040516100799190610147565b60405180910390f35b61008a6100e3565b6040516100979190610184565b60405180910390f35b6040518060400160405280600181526020017f310000000000000000000000000000000000000000000000000000000000000081525081565b6000600154905090565b6000804690508091505090565b6100f9816101bb565b82525050565b600061010a8261019f565b61011481856101aa565b93506101248185602086016101cf565b61012d81610202565b840191505092915050565b610141816101c5565b82525050565b600060208201905061015c60008301846100f0565b92915050565b6000602082019050818103600083015261017c81846100ff565b905092915050565b60006020820190506101996000830184610138565b92915050565b600081519050919050565b600082825260208201905092915050565b6000819050919050565b6000819050919050565b60005b838110156101ed5780820151818401526020810190506101d2565b838111156101fc576000848401525b50505050565b6000601f19601f830116905091905056fea2646970667358221220a7787aaab8a278c4c8487d9364fe0676e49aff2fd19def4ede87f6552330bc7264736f6c63430008000033",
  "immutableReferences": {},
  "source": "// SPDX-License-Identifier: MIT\r\npragma solidity ^0.8.0;\r\n\r\nimport \"./Initializable.sol\";\r\n\r\n\r\ncontract EIP712Base is Initializable {\r\n    struct EIP712Domain {\r\n        string name;\r\n        string version;\r\n        address verifyingContract;\r\n        bytes32 salt;\r\n    }\r\n\r\n    string constant public ERC712_VERSION = \"1\";\r\n\r\n    bytes32 internal constant EIP712_DOMAIN_TYPEHASH = keccak256(\r\n        bytes(\r\n            \"EIP712Domain(string name,string version,address verifyingContract,bytes32 salt)\"\r\n        )\r\n    );\r\n    bytes32 internal domainSeperator;\r\n\r\n    function _initializeEIP712(string memory name) internal initializer {\r\n        _setDomainSeperator(name);\r\n    }\r\n\r\n    function _setDomainSeperator(string memory name) internal {\r\n        domainSeperator = keccak256(\r\n            abi.encode(\r\n                EIP712_DOMAIN_TYPEHASH,\r\n                keccak256(bytes(name)),\r\n                keccak256(bytes(ERC712_VERSION)),\r\n                address(this),\r\n                bytes32(getChainId())\r\n            )\r\n        );\r\n    }\r\n\r\n    function getDomainSeperator() public view returns (bytes32) {\r\n        return domainSeperator;\r\n    }\r\n\r\n    function getChainId() public view returns (uint256) {\r\n        uint256 id;\r\n        assembly {\r\n            id := chainid()\r\n        }\r\n        return id;\r\n    }\r\n\r\n    /**\r\n     * Accept message hash and returns hash message in EIP712 compatible form\r\n     * So that it can be used to recover signer from signature signed using EIP712 formatted data\r\n     * https://eips.ethereum.org/EIPS/eip-712\r\n     * \"\\\\x19\" makes the encoding deterministic\r\n     * \"\\\\x01\" is the version byte to make it compatible to EIP-191\r\n     */\r\n    function toTypedMessageHash(bytes32 messageHash)\r\n        internal\r\n        view\r\n        returns (bytes32)\r\n    {\r\n        return\r\n            keccak256(\r\n                abi.encodePacked(\"\\x19\\x01\", getDomainSeperator(), messageHash)\r\n            );\r\n    }\r\n}",
  "sourcePath": "C:/repos/wasder-token/contracts/EIP712/EIP712Base.sol",
  "compiler": {
    "name": "solc",
    "version": "0.8.0+commit.c7dfd78e.Emscripten.clang"
  },
  "schemaVersion": "3.3.4",
  "updatedAt": "2021-04-30T19:04:42.716Z",
  "devdoc": {
    "kind": "dev",
    "methods": {},
    "version": 1
  },
  "userdoc": {
    "kind": "user",
    "methods": {},
    "version": 1
  }
}