{
  "contractName": "ERC677Mock",
  "abi": [
    {
      "inputs": [
        {
          "internalType": "string",
          "name": "name",
          "type": "string"
        },
        {
          "internalType": "string",
          "name": "symbol",
          "type": "string"
        },
        {
          "internalType": "address",
          "name": "initialAccount",
          "type": "address"
        },
        {
          "internalType": "uint256",
          "name": "initialBalance",
          "type": "uint256"
        }
      ],
      "stateMutability": "payable",
      "type": "constructor"
    },
    {
      "anonymous": false,
      "inputs": [
        {
          "indexed": true,
          "internalType": "address",
          "name": "owner",
          "type": "address"
        },
        {
          "indexed": true,
          "internalType": "address",
          "name": "spender",
          "type": "address"
        },
        {
          "indexed": false,
          "internalType": "uint256",
          "name": "value",
          "type": "uint256"
        }
      ],
      "name": "Approval",
      "type": "event"
    },
    {
      "anonymous": false,
      "inputs": [
        {
          "indexed": false,
          "internalType": "address",
          "name": "_sender",
          "type": "address"
        },
        {
          "indexed": false,
          "internalType": "uint256",
          "name": "_value",
          "type": "uint256"
        },
        {
          "indexed": false,
          "internalType": "bytes",
          "name": "_data",
          "type": "bytes"
        }
      ],
      "name": "OnTokenTransferReceived",
      "type": "event"
    },
    {
      "anonymous": false,
      "inputs": [
        {
          "indexed": true,
          "internalType": "address",
          "name": "from",
          "type": "address"
        },
        {
          "indexed": true,
          "internalType": "address",
          "name": "to",
          "type": "address"
        },
        {
          "indexed": false,
          "internalType": "uint256",
          "name": "value",
          "type": "uint256"
        }
      ],
      "name": "Transfer",
      "type": "event"
    },
    {
      "inputs": [
        {
          "internalType": "address",
          "name": "owner",
          "type": "address"
        },
        {
          "internalType": "address",
          "name": "spender",
          "type": "address"
        }
      ],
      "name": "allowance",
      "outputs": [
        {
          "internalType": "uint256",
          "name": "",
          "type": "uint256"
        }
      ],
      "stateMutability": "view",
      "type": "function"
    },
    {
      "inputs": [
        {
          "internalType": "address",
          "name": "spender",
          "type": "address"
        },
        {
          "internalType": "uint256",
          "name": "amount",
          "type": "uint256"
        }
      ],
      "name": "approve",
      "outputs": [
        {
          "internalType": "bool",
          "name": "",
          "type": "bool"
        }
      ],
      "stateMutability": "nonpayable",
      "type": "function"
    },
    {
      "inputs": [
        {
          "internalType": "address",
          "name": "account",
          "type": "address"
        }
      ],
      "name": "balanceOf",
      "outputs": [
        {
          "internalType": "uint256",
          "name": "",
          "type": "uint256"
        }
      ],
      "stateMutability": "view",
      "type": "function"
    },
    {
      "inputs": [],
      "name": "decimals",
      "outputs": [
        {
          "internalType": "uint8",
          "name": "",
          "type": "uint8"
        }
      ],
      "stateMutability": "view",
      "type": "function"
    },
    {
      "inputs": [
        {
          "internalType": "address",
          "name": "spender",
          "type": "address"
        },
        {
          "internalType": "uint256",
          "name": "subtractedValue",
          "type": "uint256"
        }
      ],
      "name": "decreaseAllowance",
      "outputs": [
        {
          "internalType": "bool",
          "name": "",
          "type": "bool"
        }
      ],
      "stateMutability": "nonpayable",
      "type": "function"
    },
    {
      "inputs": [
        {
          "internalType": "address",
          "name": "spender",
          "type": "address"
        },
        {
          "internalType": "uint256",
          "name": "addedValue",
          "type": "uint256"
        }
      ],
      "name": "increaseAllowance",
      "outputs": [
        {
          "internalType": "bool",
          "name": "",
          "type": "bool"
        }
      ],
      "stateMutability": "nonpayable",
      "type": "function"
    },
    {
      "inputs": [],
      "name": "name",
      "outputs": [
        {
          "internalType": "string",
          "name": "",
          "type": "string"
        }
      ],
      "stateMutability": "view",
      "type": "function"
    },
    {
      "inputs": [],
      "name": "symbol",
      "outputs": [
        {
          "internalType": "string",
          "name": "",
          "type": "string"
        }
      ],
      "stateMutability": "view",
      "type": "function"
    },
    {
      "inputs": [],
      "name": "totalSupply",
      "outputs": [
        {
          "internalType": "uint256",
          "name": "",
          "type": "uint256"
        }
      ],
      "stateMutability": "view",
      "type": "function"
    },
    {
      "inputs": [
        {
          "internalType": "address",
          "name": "recipient",
          "type": "address"
        },
        {
          "internalType": "uint256",
          "name": "amount",
          "type": "uint256"
        }
      ],
      "name": "transfer",
      "outputs": [
        {
          "internalType": "bool",
          "name": "",
          "type": "bool"
        }
      ],
      "stateMutability": "nonpayable",
      "type": "function"
    },
    {
      "inputs": [
        {
          "internalType": "address",
          "name": "sender",
          "type": "address"
        },
        {
          "internalType": "address",
          "name": "recipient",
          "type": "address"
        },
        {
          "internalType": "uint256",
          "name": "amount",
          "type": "uint256"
        }
      ],
      "name": "transferFrom",
      "outputs": [
        {
          "internalType": "bool",
          "name": "",
          "type": "bool"
        }
      ],
      "stateMutability": "nonpayable",
      "type": "function"
    },
    {
      "inputs": [
        {
          "internalType": "address",
          "name": "_sender",
          "type": "address"
        },
        {
          "internalType": "uint256",
          "name": "_value",
          "type": "uint256"
        },
        {
          "internalType": "bytes",
          "name": "_data",
          "type": "bytes"
        }
      ],
      "name": "onTokenTransfer",
      "outputs": [],
      "stateMutability": "nonpayable",
      "type": "function"
    },
    {
      "inputs": [
        {
          "internalType": "address",
          "name": "account",
          "type": "address"
        },
        {
          "internalType": "uint256",
          "name": "amount",
          "type": "uint256"
        }
      ],
      "name": "burn",
      "outputs": [],
      "stateMutability": "nonpayable",
      "type": "function"
    },
    {
      "inputs": [
        {
          "internalType": "address",
          "name": "from",
          "type": "address"
        },
        {
          "internalType": "address",
          "name": "to",
          "type": "address"
        },
        {
          "internalType": "uint256",
          "name": "value",
          "type": "uint256"
        }
      ],
      "name": "transferInternal",
      "outputs": [],
      "stateMutability": "nonpayable",
      "type": "function"
    },
    {
      "inputs": [
        {
          "internalType": "address",
          "name": "owner",
          "type": "address"
        },
        {
          "internalType": "address",
          "name": "spender",
          "type": "address"
        },
        {
          "internalType": "uint256",
          "name": "value",
          "type": "uint256"
        }
      ],
      "name": "approveInternal",
      "outputs": [],
      "stateMutability": "nonpayable",
      "type": "function"
    }
  ],
  "bytecode": "0x60806040526040516200204f3803806200204f833981810160405281019062000029919062000335565b8383816003908051906020019062000043929190620001e5565b5080600490805190602001906200005c929190620001e5565b5050506200007182826200007b60201b60201c565b50505050620006a5565b600073ffffffffffffffffffffffffffffffffffffffff168273ffffffffffffffffffffffffffffffffffffffff161415620000ee576040517f08c379a0000000000000000000000000000000000000000000000000000000008152600401620000e59062000426565b60405180910390fd5b6200010260008383620001e060201b60201c565b8060026000828254620001169190620004dd565b92505081905550806000808473ffffffffffffffffffffffffffffffffffffffff1673ffffffffffffffffffffffffffffffffffffffff16815260200190815260200160002060008282546200016d9190620004dd565b925050819055508173ffffffffffffffffffffffffffffffffffffffff16600073ffffffffffffffffffffffffffffffffffffffff167fddf252ad1be2c89b69c2b068fc378daa952ba7f163c4a11628f55a4df523b3ef83604051620001d4919062000448565b60405180910390a35050565b505050565b828054620001f390620005ae565b90600052602060002090601f01602090048101928262000217576000855562000263565b82601f106200023257805160ff191683800117855562000263565b8280016001018555821562000263579182015b828111156200026257825182559160200191906001019062000245565b5b50905062000272919062000276565b5090565b5b808211156200029157600081600090555060010162000277565b5090565b6000620002ac620002a68462000499565b62000465565b905082815260208101848484011115620002c557600080fd5b620002d284828562000578565b509392505050565b600081519050620002eb8162000671565b92915050565b600082601f8301126200030357600080fd5b81516200031584826020860162000295565b91505092915050565b6000815190506200032f816200068b565b92915050565b600080600080608085870312156200034c57600080fd5b600085015167ffffffffffffffff8111156200036757600080fd5b6200037587828801620002f1565b945050602085015167ffffffffffffffff8111156200039357600080fd5b620003a187828801620002f1565b9350506040620003b487828801620002da565b9250506060620003c7878288016200031e565b91505092959194509250565b6000620003e2601f83620004cc565b91507f45524332303a206d696e7420746f20746865207a65726f2061646472657373006000830152602082019050919050565b62000420816200056e565b82525050565b600060208201905081810360008301526200044181620003d3565b9050919050565b60006020820190506200045f600083018462000415565b92915050565b6000604051905081810181811067ffffffffffffffff821117156200048f576200048e62000642565b5b8060405250919050565b600067ffffffffffffffff821115620004b757620004b662000642565b5b601f19601f8301169050602081019050919050565b600082825260208201905092915050565b6000620004ea826200056e565b9150620004f7836200056e565b9250827fffffffffffffffffffffffffffffffffffffffffffffffffffffffffffffffff038211156200052f576200052e620005e4565b5b828201905092915050565b600062000547826200054e565b9050919050565b600073ffffffffffffffffffffffffffffffffffffffff82169050919050565b6000819050919050565b60005b83811015620005985780820151818401526020810190506200057b565b83811115620005a8576000848401525b50505050565b60006002820490506001821680620005c757607f821691505b60208210811415620005de57620005dd62000613565b5b50919050565b7f4e487b7100000000000000000000000000000000000000000000000000000000600052601160045260246000fd5b7f4e487b7100000000000000000000000000000000000000000000000000000000600052602260045260246000fd5b7f4e487b7100000000000000000000000000000000000000000000000000000000600052604160045260246000fd5b6200067c816200053a565b81146200068857600080fd5b50565b62000696816200056e565b8114620006a257600080fd5b50565b61199a80620006b56000396000f3fe608060405234801561001057600080fd5b50600436106100f55760003560e01c806356189cb411610097578063a457c2d711610066578063a457c2d714610286578063a4c0ed36146102b6578063a9059cbb146102d2578063dd62ed3e14610302576100f5565b806356189cb41461020057806370a082311461021c57806395d89b411461024c5780639dc29fac1461026a576100f5565b8063222f5be0116100d3578063222f5be01461016657806323b872dd14610182578063313ce567146101b257806339509351146101d0576100f5565b806306fdde03146100fa578063095ea7b31461011857806318160ddd14610148575b600080fd5b610102610332565b60405161010f9190611534565b60405180910390f35b610132600480360381019061012d9190610ff4565b6103c4565b60405161013f9190611519565b60405180910390f35b6101506103e2565b60405161015d9190611676565b60405180910390f35b610180600480360381019061017b9190610fa5565b6103ec565b005b61019c60048036038101906101979190610fa5565b6103fc565b6040516101a99190611519565b60405180910390f35b6101ba6104fd565b6040516101c79190611691565b60405180910390f35b6101ea60048036038101906101e59190610ff4565b610506565b6040516101f79190611519565b60405180910390f35b61021a60048036038101906102159190610fa5565b6105b2565b005b61023660048036038101906102319190610f40565b6105c2565b6040516102439190611676565b60405180910390f35b61025461060a565b6040516102619190611534565b60405180910390f35b610284600480360381019061027f9190610ff4565b61069c565b005b6102a0600480360381019061029b9190610ff4565b6106aa565b6040516102ad9190611519565b60405180910390f35b6102d060048036038101906102cb9190611030565b61079e565b005b6102ec60048036038101906102e79190610ff4565b6107de565b6040516102f99190611519565b60405180910390f35b61031c60048036038101906103179190610f69565b6107fc565b6040516103299190611676565b60405180910390f35b60606003805461034190611866565b80601f016020809104026020016040519081016040528092919081815260200182805461036d90611866565b80156103ba5780601f1061038f576101008083540402835291602001916103ba565b820191906000526020600020905b81548152906001019060200180831161039d57829003601f168201915b5050505050905090565b60006103d86103d1610883565b848461088b565b6001905092915050565b6000600254905090565b6103f7838383610a56565b505050565b6000610409848484610a56565b6000600160008673ffffffffffffffffffffffffffffffffffffffff1673ffffffffffffffffffffffffffffffffffffffff1681526020019081526020016000206000610454610883565b73ffffffffffffffffffffffffffffffffffffffff1673ffffffffffffffffffffffffffffffffffffffff168152602001908152602001600020549050828110156104d4576040517f08c379a00000000000000000000000000000000000000000000000000000000081526004016104cb906115d6565b60405180910390fd5b6104f1856104e0610883565b85846104ec919061179b565b61088b565b60019150509392505050565b60006012905090565b60006105a8610513610883565b848460016000610521610883565b73ffffffffffffffffffffffffffffffffffffffff1673ffffffffffffffffffffffffffffffffffffffff16815260200190815260200160002060008873ffffffffffffffffffffffffffffffffffffffff1673ffffffffffffffffffffffffffffffffffffffff168152602001908152602001600020546105a39190611745565b61088b565b6001905092915050565b6105bd83838361088b565b505050565b60008060008373ffffffffffffffffffffffffffffffffffffffff1673ffffffffffffffffffffffffffffffffffffffff168152602001908152602001600020549050919050565b60606004805461061990611866565b80601f016020809104026020016040519081016040528092919081815260200182805461064590611866565b80156106925780601f1061066757610100808354040283529160200191610692565b820191906000526020600020905b81548152906001019060200180831161067557829003601f168201915b5050505050905090565b6106a68282610cd5565b5050565b600080600160006106b9610883565b73ffffffffffffffffffffffffffffffffffffffff1673ffffffffffffffffffffffffffffffffffffffff16815260200190815260200160002060008573ffffffffffffffffffffffffffffffffffffffff1673ffffffffffffffffffffffffffffffffffffffff16815260200190815260200160002054905082811015610776576040517f08c379a000000000000000000000000000000000000000000000000000000000815260040161076d90611656565b60405180910390fd5b610793610781610883565b85858461078e919061179b565b61088b565b600191505092915050565b7f20b1b80d5a7a27a86754023f27415f696ae39fbd73b8c0e14049d18fd3041ba98383836040516107d1939291906114db565b60405180910390a1505050565b60006107f26107eb610883565b8484610a56565b6001905092915050565b6000600160008473ffffffffffffffffffffffffffffffffffffffff1673ffffffffffffffffffffffffffffffffffffffff16815260200190815260200160002060008373ffffffffffffffffffffffffffffffffffffffff1673ffffffffffffffffffffffffffffffffffffffff16815260200190815260200160002054905092915050565b600033905090565b600073ffffffffffffffffffffffffffffffffffffffff168373ffffffffffffffffffffffffffffffffffffffff1614156108fb576040517f08c379a00000000000000000000000000000000000000000000000000000000081526004016108f290611636565b60405180910390fd5b600073ffffffffffffffffffffffffffffffffffffffff168273ffffffffffffffffffffffffffffffffffffffff16141561096b576040517f08c379a000000000000000000000000000000000000000000000000000000000815260040161096290611596565b60405180910390fd5b80600160008573ffffffffffffffffffffffffffffffffffffffff1673ffffffffffffffffffffffffffffffffffffffff16815260200190815260200160002060008473ffffffffffffffffffffffffffffffffffffffff1673ffffffffffffffffffffffffffffffffffffffff168152602001908152602001600020819055508173ffffffffffffffffffffffffffffffffffffffff168373ffffffffffffffffffffffffffffffffffffffff167f8c5be1e5ebec7d5bd14f71427d1e84f3dd0314c0f7b2291e5b200ac8c7c3b92583604051610a499190611676565b60405180910390a3505050565b600073ffffffffffffffffffffffffffffffffffffffff168373ffffffffffffffffffffffffffffffffffffffff161415610ac6576040517f08c379a0000000000000000000000000000000000000000000000000000000008152600401610abd90611616565b60405180910390fd5b600073ffffffffffffffffffffffffffffffffffffffff168273ffffffffffffffffffffffffffffffffffffffff161415610b36576040517f08c379a0000000000000000000000000000000000000000000000000000000008152600401610b2d90611556565b60405180910390fd5b610b41838383610ea9565b60008060008573ffffffffffffffffffffffffffffffffffffffff1673ffffffffffffffffffffffffffffffffffffffff16815260200190815260200160002054905081811015610bc7576040517f08c379a0000000000000000000000000000000000000000000000000000000008152600401610bbe906115b6565b60405180910390fd5b8181610bd3919061179b565b6000808673ffffffffffffffffffffffffffffffffffffffff1673ffffffffffffffffffffffffffffffffffffffff16815260200190815260200160002081905550816000808573ffffffffffffffffffffffffffffffffffffffff1673ffffffffffffffffffffffffffffffffffffffff1681526020019081526020016000206000828254610c639190611745565b925050819055508273ffffffffffffffffffffffffffffffffffffffff168473ffffffffffffffffffffffffffffffffffffffff167fddf252ad1be2c89b69c2b068fc378daa952ba7f163c4a11628f55a4df523b3ef84604051610cc79190611676565b60405180910390a350505050565b600073ffffffffffffffffffffffffffffffffffffffff168273ffffffffffffffffffffffffffffffffffffffff161415610d45576040517f08c379a0000000000000000000000000000000000000000000000000000000008152600401610d3c906115f6565b60405180910390fd5b610d5182600083610ea9565b60008060008473ffffffffffffffffffffffffffffffffffffffff1673ffffffffffffffffffffffffffffffffffffffff16815260200190815260200160002054905081811015610dd7576040517f08c379a0000000000000000000000000000000000000000000000000000000008152600401610dce90611576565b60405180910390fd5b8181610de3919061179b565b6000808573ffffffffffffffffffffffffffffffffffffffff1673ffffffffffffffffffffffffffffffffffffffff168152602001908152602001600020819055508160026000828254610e37919061179b565b92505081905550600073ffffffffffffffffffffffffffffffffffffffff168373ffffffffffffffffffffffffffffffffffffffff167fddf252ad1be2c89b69c2b068fc378daa952ba7f163c4a11628f55a4df523b3ef84604051610e9c9190611676565b60405180910390a3505050565b505050565b6000610ec1610ebc846116dd565b6116ac565b905082815260208101848484011115610ed957600080fd5b610ee4848285611824565b509392505050565b600081359050610efb81611936565b92915050565b600082601f830112610f1257600080fd5b8135610f22848260208601610eae565b91505092915050565b600081359050610f3a8161194d565b92915050565b600060208284031215610f5257600080fd5b6000610f6084828501610eec565b91505092915050565b60008060408385031215610f7c57600080fd5b6000610f8a85828601610eec565b9250506020610f9b85828601610eec565b9150509250929050565b600080600060608486031215610fba57600080fd5b6000610fc886828701610eec565b9350506020610fd986828701610eec565b9250506040610fea86828701610f2b565b9150509250925092565b6000806040838503121561100757600080fd5b600061101585828601610eec565b925050602061102685828601610f2b565b9150509250929050565b60008060006060848603121561104557600080fd5b600061105386828701610eec565b935050602061106486828701610f2b565b925050604084013567ffffffffffffffff81111561108157600080fd5b61108d86828701610f01565b9150509250925092565b6110a0816117cf565b82525050565b6110af816117e1565b82525050565b60006110c08261170d565b6110ca8185611723565b93506110da818560208601611833565b6110e381611925565b840191505092915050565b60006110f982611718565b6111038185611734565b9350611113818560208601611833565b61111c81611925565b840191505092915050565b6000611134602383611734565b91507f45524332303a207472616e7366657220746f20746865207a65726f206164647260008301527f65737300000000000000000000000000000000000000000000000000000000006020830152604082019050919050565b600061119a602283611734565b91507f45524332303a206275726e20616d6f756e7420657863656564732062616c616e60008301527f63650000000000000000000000000000000000000000000000000000000000006020830152604082019050919050565b6000611200602283611734565b91507f45524332303a20617070726f766520746f20746865207a65726f20616464726560008301527f73730000000000000000000000000000000000000000000000000000000000006020830152604082019050919050565b6000611266602683611734565b91507f45524332303a207472616e7366657220616d6f756e742065786365656473206260008301527f616c616e636500000000000000000000000000000000000000000000000000006020830152604082019050919050565b60006112cc602883611734565b91507f45524332303a207472616e7366657220616d6f756e742065786365656473206160008301527f6c6c6f77616e63650000000000000000000000000000000000000000000000006020830152604082019050919050565b6000611332602183611734565b91507f45524332303a206275726e2066726f6d20746865207a65726f2061646472657360008301527f73000000000000000000000000000000000000000000000000000000000000006020830152604082019050919050565b6000611398602583611734565b91507f45524332303a207472616e736665722066726f6d20746865207a65726f20616460008301527f64726573730000000000000000000000000000000000000000000000000000006020830152604082019050919050565b60006113fe602483611734565b91507f45524332303a20617070726f76652066726f6d20746865207a65726f2061646460008301527f72657373000000000000000000000000000000000000000000000000000000006020830152604082019050919050565b6000611464602583611734565b91507f45524332303a2064656372656173656420616c6c6f77616e63652062656c6f7760008301527f207a65726f0000000000000000000000000000000000000000000000000000006020830152604082019050919050565b6114c68161180d565b82525050565b6114d581611817565b82525050565b60006060820190506114f06000830186611097565b6114fd60208301856114bd565b818103604083015261150f81846110b5565b9050949350505050565b600060208201905061152e60008301846110a6565b92915050565b6000602082019050818103600083015261154e81846110ee565b905092915050565b6000602082019050818103600083015261156f81611127565b9050919050565b6000602082019050818103600083015261158f8161118d565b9050919050565b600060208201905081810360008301526115af816111f3565b9050919050565b600060208201905081810360008301526115cf81611259565b9050919050565b600060208201905081810360008301526115ef816112bf565b9050919050565b6000602082019050818103600083015261160f81611325565b9050919050565b6000602082019050818103600083015261162f8161138b565b9050919050565b6000602082019050818103600083015261164f816113f1565b9050919050565b6000602082019050818103600083015261166f81611457565b9050919050565b600060208201905061168b60008301846114bd565b92915050565b60006020820190506116a660008301846114cc565b92915050565b6000604051905081810181811067ffffffffffffffff821117156116d3576116d26118f6565b5b8060405250919050565b600067ffffffffffffffff8211156116f8576116f76118f6565b5b601f19601f8301169050602081019050919050565b600081519050919050565b600081519050919050565b600082825260208201905092915050565b600082825260208201905092915050565b60006117508261180d565b915061175b8361180d565b9250827fffffffffffffffffffffffffffffffffffffffffffffffffffffffffffffffff038211156117905761178f611898565b5b828201905092915050565b60006117a68261180d565b91506117b18361180d565b9250828210156117c4576117c3611898565b5b828203905092915050565b60006117da826117ed565b9050919050565b60008115159050919050565b600073ffffffffffffffffffffffffffffffffffffffff82169050919050565b6000819050919050565b600060ff82169050919050565b82818337600083830152505050565b60005b83811015611851578082015181840152602081019050611836565b83811115611860576000848401525b50505050565b6000600282049050600182168061187e57607f821691505b60208210811415611892576118916118c7565b5b50919050565b7f4e487b7100000000000000000000000000000000000000000000000000000000600052601160045260246000fd5b7f4e487b7100000000000000000000000000000000000000000000000000000000600052602260045260246000fd5b7f4e487b7100000000000000000000000000000000000000000000000000000000600052604160045260246000fd5b6000601f19601f8301169050919050565b61193f816117cf565b811461194a57600080fd5b50565b6119568161180d565b811461196157600080fd5b5056fea264697066735822122072da1ac2eaf3295e7889e72b42b2d133ae5016025de9812977c3f00e0fff04cd64736f6c63430008000033",
  "immutableReferences": {},
  "source": "// SPDX-License-Identifier: MIT\r\n\r\npragma solidity ^0.8.0;\r\n\r\nimport \"@openzeppelin/contracts/token/ERC20/ERC20.sol\";\r\n\r\nimport \"./IERC677Receiver.sol\";\r\n\r\n// mock class using ERC20\r\ncontract ERC677Mock is ERC20, IERC677Receiver {\r\n    constructor (\r\n        string memory name,\r\n        string memory symbol,\r\n        address initialAccount,\r\n        uint256 initialBalance\r\n    ) payable ERC20(name, symbol) {\r\n        _mint(initialAccount, initialBalance);\r\n    }\r\n\r\n    //receive the ERC20 token\r\n    event OnTokenTransferReceived(address _sender, uint _value, bytes _data);\r\n\r\n    function onTokenTransfer(address _sender, uint _value, bytes memory _data) public override {\r\n        emit OnTokenTransferReceived(_sender, _value, _data);\r\n    }\r\n\r\n    // function mint(address account, uint256 amount) public {\r\n    //     _mint(account, amount);\r\n    // }\r\n\r\n    function burn(address account, uint256 amount) public {\r\n        _burn(account, amount);\r\n    }\r\n\r\n    function transferInternal(address from, address to, uint256 value) public {\r\n        _transfer(from, to, value);\r\n    }\r\n\r\n    function approveInternal(address owner, address spender, uint256 value) public {\r\n        _approve(owner, spender, value);\r\n    }\r\n}",
  "sourcePath": "C:/repos/wasder-token/contracts/ERC677/ERC677Mock.sol",
  "compiler": {
    "name": "solc",
    "version": "0.8.0+commit.c7dfd78e.Emscripten.clang"
  },
  "schemaVersion": "3.3.4",
  "updatedAt": "2021-04-26T05:00:04.743Z",
  "devdoc": {
    "kind": "dev",
    "methods": {
      "allowance(address,address)": {
        "details": "See {IERC20-allowance}."
      },
      "approve(address,uint256)": {
        "details": "See {IERC20-approve}. Requirements: - `spender` cannot be the zero address."
      },
      "balanceOf(address)": {
        "details": "See {IERC20-balanceOf}."
      },
      "decimals()": {
        "details": "Returns the number of decimals used to get its user representation. For example, if `decimals` equals `2`, a balance of `505` tokens should be displayed to a user as `5,05` (`505 / 10 ** 2`). Tokens usually opt for a value of 18, imitating the relationship between Ether and Wei. This is the value {ERC20} uses, unless this function is overloaded; NOTE: This information is only used for _display_ purposes: it in no way affects any of the arithmetic of the contract, including {IERC20-balanceOf} and {IERC20-transfer}."
      },
      "decreaseAllowance(address,uint256)": {
        "details": "Atomically decreases the allowance granted to `spender` by the caller. This is an alternative to {approve} that can be used as a mitigation for problems described in {IERC20-approve}. Emits an {Approval} event indicating the updated allowance. Requirements: - `spender` cannot be the zero address. - `spender` must have allowance for the caller of at least `subtractedValue`."
      },
      "increaseAllowance(address,uint256)": {
        "details": "Atomically increases the allowance granted to `spender` by the caller. This is an alternative to {approve} that can be used as a mitigation for problems described in {IERC20-approve}. Emits an {Approval} event indicating the updated allowance. Requirements: - `spender` cannot be the zero address."
      },
      "name()": {
        "details": "Returns the name of the token."
      },
      "symbol()": {
        "details": "Returns the symbol of the token, usually a shorter version of the name."
      },
      "totalSupply()": {
        "details": "See {IERC20-totalSupply}."
      },
      "transfer(address,uint256)": {
        "details": "See {IERC20-transfer}. Requirements: - `recipient` cannot be the zero address. - the caller must have a balance of at least `amount`."
      },
      "transferFrom(address,address,uint256)": {
        "details": "See {IERC20-transferFrom}. Emits an {Approval} event indicating the updated allowance. This is not required by the EIP. See the note at the beginning of {ERC20}. Requirements: - `sender` and `recipient` cannot be the zero address. - `sender` must have a balance of at least `amount`. - the caller must have allowance for ``sender``'s tokens of at least `amount`."
      }
    },
    "version": 1
  },
  "userdoc": {
    "kind": "user",
    "methods": {},
    "version": 1
  }
}