{
  "contractName": "WasderToken",
  "abi": [
    {
      "inputs": [
        {
          "internalType": "address",
          "name": "to",
          "type": "address"
        }
      ],
      "stateMutability": "nonpayable",
      "type": "constructor"
    },
    {
      "anonymous": false,
      "inputs": [
        {
          "indexed": true,
          "internalType": "address",
          "name": "owner",
          "type": "address"
        },
        {
          "indexed": true,
          "internalType": "address",
          "name": "spender",
          "type": "address"
        },
        {
          "indexed": false,
          "internalType": "uint256",
          "name": "value",
          "type": "uint256"
        }
      ],
      "name": "Approval",
      "type": "event"
    },
    {
      "anonymous": false,
      "inputs": [
        {
          "indexed": true,
          "internalType": "bytes32",
          "name": "role",
          "type": "bytes32"
        },
        {
          "indexed": true,
          "internalType": "bytes32",
          "name": "previousAdminRole",
          "type": "bytes32"
        },
        {
          "indexed": true,
          "internalType": "bytes32",
          "name": "newAdminRole",
          "type": "bytes32"
        }
      ],
      "name": "RoleAdminChanged",
      "type": "event"
    },
    {
      "anonymous": false,
      "inputs": [
        {
          "indexed": true,
          "internalType": "bytes32",
          "name": "role",
          "type": "bytes32"
        },
        {
          "indexed": true,
          "internalType": "address",
          "name": "account",
          "type": "address"
        },
        {
          "indexed": true,
          "internalType": "address",
          "name": "sender",
          "type": "address"
        }
      ],
      "name": "RoleGranted",
      "type": "event"
    },
    {
      "anonymous": false,
      "inputs": [
        {
          "indexed": true,
          "internalType": "bytes32",
          "name": "role",
          "type": "bytes32"
        },
        {
          "indexed": true,
          "internalType": "address",
          "name": "account",
          "type": "address"
        },
        {
          "indexed": true,
          "internalType": "address",
          "name": "sender",
          "type": "address"
        }
      ],
      "name": "RoleRevoked",
      "type": "event"
    },
    {
      "anonymous": false,
      "inputs": [
        {
          "indexed": false,
          "internalType": "uint256",
          "name": "id",
          "type": "uint256"
        }
      ],
      "name": "Snapshot",
      "type": "event"
    },
    {
      "anonymous": false,
      "inputs": [
        {
          "indexed": true,
          "internalType": "address",
          "name": "from",
          "type": "address"
        },
        {
          "indexed": true,
          "internalType": "address",
          "name": "to",
          "type": "address"
        },
        {
          "indexed": false,
          "internalType": "uint256",
          "name": "value",
          "type": "uint256"
        },
        {
          "indexed": false,
          "internalType": "bytes",
          "name": "data",
          "type": "bytes"
        }
      ],
      "name": "Transfer",
      "type": "event"
    },
    {
      "anonymous": false,
      "inputs": [
        {
          "indexed": true,
          "internalType": "address",
          "name": "from",
          "type": "address"
        },
        {
          "indexed": true,
          "internalType": "address",
          "name": "to",
          "type": "address"
        },
        {
          "indexed": false,
          "internalType": "uint256",
          "name": "value",
          "type": "uint256"
        }
      ],
      "name": "Transfer",
      "type": "event"
    },
    {
      "inputs": [],
      "name": "BURNER_ROLE",
      "outputs": [
        {
          "internalType": "bytes32",
          "name": "",
          "type": "bytes32"
        }
      ],
      "stateMutability": "view",
      "type": "function",
      "constant": true
    },
    {
      "inputs": [],
      "name": "DEFAULT_ADMIN_ROLE",
      "outputs": [
        {
          "internalType": "bytes32",
          "name": "",
          "type": "bytes32"
        }
      ],
      "stateMutability": "view",
      "type": "function",
      "constant": true
    },
    {
      "inputs": [],
      "name": "ERC712_VERSION",
      "outputs": [
        {
          "internalType": "string",
          "name": "",
          "type": "string"
        }
      ],
      "stateMutability": "view",
      "type": "function",
      "constant": true
    },
    {
      "inputs": [],
      "name": "INITIAL_SUPPLY",
      "outputs": [
        {
          "internalType": "uint256",
          "name": "",
          "type": "uint256"
        }
      ],
      "stateMutability": "view",
      "type": "function",
      "constant": true
    },
    {
      "inputs": [
        {
          "internalType": "address",
          "name": "owner",
          "type": "address"
        },
        {
          "internalType": "address",
          "name": "spender",
          "type": "address"
        }
      ],
      "name": "allowance",
      "outputs": [
        {
          "internalType": "uint256",
          "name": "",
          "type": "uint256"
        }
      ],
      "stateMutability": "view",
      "type": "function",
      "constant": true
    },
    {
      "inputs": [
        {
          "internalType": "address",
          "name": "spender",
          "type": "address"
        },
        {
          "internalType": "uint256",
          "name": "amount",
          "type": "uint256"
        }
      ],
      "name": "approve",
      "outputs": [
        {
          "internalType": "bool",
          "name": "",
          "type": "bool"
        }
      ],
      "stateMutability": "nonpayable",
      "type": "function"
    },
    {
      "inputs": [
        {
          "internalType": "address",
          "name": "account",
          "type": "address"
        }
      ],
      "name": "balanceOf",
      "outputs": [
        {
          "internalType": "uint256",
          "name": "",
          "type": "uint256"
        }
      ],
      "stateMutability": "view",
      "type": "function",
      "constant": true
    },
    {
      "inputs": [
        {
          "internalType": "address",
          "name": "account",
          "type": "address"
        },
        {
          "internalType": "uint256",
          "name": "snapshotId",
          "type": "uint256"
        }
      ],
      "name": "balanceOfAt",
      "outputs": [
        {
          "internalType": "uint256",
          "name": "",
          "type": "uint256"
        }
      ],
      "stateMutability": "view",
      "type": "function",
      "constant": true
    },
    {
      "inputs": [],
      "name": "decimals",
      "outputs": [
        {
          "internalType": "uint8",
          "name": "",
          "type": "uint8"
        }
      ],
      "stateMutability": "view",
      "type": "function",
      "constant": true
    },
    {
      "inputs": [
        {
          "internalType": "address",
          "name": "spender",
          "type": "address"
        },
        {
          "internalType": "uint256",
          "name": "subtractedValue",
          "type": "uint256"
        }
      ],
      "name": "decreaseAllowance",
      "outputs": [
        {
          "internalType": "bool",
          "name": "",
          "type": "bool"
        }
      ],
      "stateMutability": "nonpayable",
      "type": "function"
    },
    {
      "inputs": [],
      "name": "getChainId",
      "outputs": [
        {
          "internalType": "uint256",
          "name": "",
          "type": "uint256"
        }
      ],
      "stateMutability": "view",
      "type": "function",
      "constant": true
    },
    {
      "inputs": [],
      "name": "getDomainSeperator",
      "outputs": [
        {
          "internalType": "bytes32",
          "name": "",
          "type": "bytes32"
        }
      ],
      "stateMutability": "view",
      "type": "function",
      "constant": true
    },
    {
      "inputs": [
        {
          "internalType": "bytes32",
          "name": "role",
          "type": "bytes32"
        }
      ],
      "name": "getRoleAdmin",
      "outputs": [
        {
          "internalType": "bytes32",
          "name": "",
          "type": "bytes32"
        }
      ],
      "stateMutability": "view",
      "type": "function",
      "constant": true
    },
    {
      "inputs": [
        {
          "internalType": "bytes32",
          "name": "role",
          "type": "bytes32"
        },
        {
          "internalType": "address",
          "name": "account",
          "type": "address"
        }
      ],
      "name": "grantRole",
      "outputs": [],
      "stateMutability": "nonpayable",
      "type": "function"
    },
    {
      "inputs": [
        {
          "internalType": "bytes32",
          "name": "role",
          "type": "bytes32"
        },
        {
          "internalType": "address",
          "name": "account",
          "type": "address"
        }
      ],
      "name": "hasRole",
      "outputs": [
        {
          "internalType": "bool",
          "name": "",
          "type": "bool"
        }
      ],
      "stateMutability": "view",
      "type": "function",
      "constant": true
    },
    {
      "inputs": [
        {
          "internalType": "address",
          "name": "spender",
          "type": "address"
        },
        {
          "internalType": "uint256",
          "name": "addedValue",
          "type": "uint256"
        }
      ],
      "name": "increaseAllowance",
      "outputs": [
        {
          "internalType": "bool",
          "name": "",
          "type": "bool"
        }
      ],
      "stateMutability": "nonpayable",
      "type": "function"
    },
    {
      "inputs": [],
      "name": "name",
      "outputs": [
        {
          "internalType": "string",
          "name": "",
          "type": "string"
        }
      ],
      "stateMutability": "view",
      "type": "function",
      "constant": true
    },
    {
      "inputs": [
        {
          "internalType": "bytes32",
          "name": "role",
          "type": "bytes32"
        },
        {
          "internalType": "address",
          "name": "account",
          "type": "address"
        }
      ],
      "name": "renounceRole",
      "outputs": [],
      "stateMutability": "nonpayable",
      "type": "function"
    },
    {
      "inputs": [
        {
          "internalType": "bytes32",
          "name": "role",
          "type": "bytes32"
        },
        {
          "internalType": "address",
          "name": "account",
          "type": "address"
        }
      ],
      "name": "revokeRole",
      "outputs": [],
      "stateMutability": "nonpayable",
      "type": "function"
    },
    {
      "inputs": [
        {
          "internalType": "bytes4",
          "name": "interfaceId",
          "type": "bytes4"
        }
      ],
      "name": "supportsInterface",
      "outputs": [
        {
          "internalType": "bool",
          "name": "",
          "type": "bool"
        }
      ],
      "stateMutability": "view",
      "type": "function",
      "constant": true
    },
    {
      "inputs": [],
      "name": "symbol",
      "outputs": [
        {
          "internalType": "string",
          "name": "",
          "type": "string"
        }
      ],
      "stateMutability": "view",
      "type": "function",
      "constant": true
    },
    {
      "inputs": [],
      "name": "totalSupply",
      "outputs": [
        {
          "internalType": "uint256",
          "name": "",
          "type": "uint256"
        }
      ],
      "stateMutability": "view",
      "type": "function",
      "constant": true
    },
    {
      "inputs": [
        {
          "internalType": "uint256",
          "name": "snapshotId",
          "type": "uint256"
        }
      ],
      "name": "totalSupplyAt",
      "outputs": [
        {
          "internalType": "uint256",
          "name": "",
          "type": "uint256"
        }
      ],
      "stateMutability": "view",
      "type": "function",
      "constant": true
    },
    {
      "inputs": [
        {
          "internalType": "address",
          "name": "recipient",
          "type": "address"
        },
        {
          "internalType": "uint256",
          "name": "amount",
          "type": "uint256"
        }
      ],
      "name": "transfer",
      "outputs": [
        {
          "internalType": "bool",
          "name": "",
          "type": "bool"
        }
      ],
      "stateMutability": "nonpayable",
      "type": "function"
    },
    {
      "inputs": [
        {
          "internalType": "address",
          "name": "sender",
          "type": "address"
        },
        {
          "internalType": "address",
          "name": "recipient",
          "type": "address"
        },
        {
          "internalType": "uint256",
          "name": "amount",
          "type": "uint256"
        }
      ],
      "name": "transferFrom",
      "outputs": [
        {
          "internalType": "bool",
          "name": "",
          "type": "bool"
        }
      ],
      "stateMutability": "nonpayable",
      "type": "function"
    },
    {
      "inputs": [
        {
          "internalType": "uint256",
          "name": "amount",
          "type": "uint256"
        }
      ],
      "name": "burn",
      "outputs": [],
      "stateMutability": "nonpayable",
      "type": "function"
    },
    {
      "inputs": [],
      "name": "snapshot",
      "outputs": [],
      "stateMutability": "nonpayable",
      "type": "function"
    },
    {
      "inputs": [
        {
          "internalType": "address",
          "name": "_to",
          "type": "address"
        },
        {
          "internalType": "uint256",
          "name": "_value",
          "type": "uint256"
        },
        {
          "internalType": "bytes",
          "name": "_data",
          "type": "bytes"
        }
      ],
      "name": "transferAndCall",
      "outputs": [
        {
          "internalType": "bool",
          "name": "success",
          "type": "bool"
        }
      ],
      "stateMutability": "nonpayable",
      "type": "function"
    }
  ],
  "bytecode": "0x60806040526000600a60006101000a81548160ff0219169083151502179055503480156200002c57600080fd5b5060405162003b8a38038062003b8a833981810160405281019062000052919062000949565b6040518060400160405280600c81526020017f57617364657220546f6b656e00000000000000000000000000000000000000008152506040518060400160405280600381526020017f57415300000000000000000000000000000000000000000000000000000000008152508160039080519060200190620000d692919062000882565b508060049080519060200190620000ef92919062000882565b50505062000110816b033b2e3c9fd0803ce80000006200017260201b60201c565b620001566040518060400160405280600c81526020017f57617364657220546f6b656e0000000000000000000000000000000000000000815250620002d760201b60201c565b6200016b6000801b826200035960201b60201c565b5062000c89565b600073ffffffffffffffffffffffffffffffffffffffff168273ffffffffffffffffffffffffffffffffffffffff161415620001e5576040517f08c379a0000000000000000000000000000000000000000000000000000000008152600401620001dc9062000aab565b60405180910390fd5b620001f9600083836200036f60201b60201c565b80600260008282546200020d919062000afb565b92505081905550806000808473ffffffffffffffffffffffffffffffffffffffff1673ffffffffffffffffffffffffffffffffffffffff168152602001908152602001600020600082825462000264919062000afb565b925050819055508173ffffffffffffffffffffffffffffffffffffffff16600073ffffffffffffffffffffffffffffffffffffffff167fddf252ad1be2c89b69c2b068fc378daa952ba7f163c4a11628f55a4df523b3ef83604051620002cb919062000acd565b60405180910390a35050565b600a60009054906101000a900460ff16156200032a576040517f08c379a0000000000000000000000000000000000000000000000000000000008152600401620003219062000a89565b60405180910390fd5b6200033b816200046a60201b60201c565b6001600a60006101000a81548160ff02191690831515021790555050565b6200036b82826200051960201b60201c565b5050565b620003878383836200060b60201b620010711760201c565b600073ffffffffffffffffffffffffffffffffffffffff168373ffffffffffffffffffffffffffffffffffffffff161415620003e457620003ce826200061060201b60201c565b620003de6200067360201b60201c565b62000465565b600073ffffffffffffffffffffffffffffffffffffffff168273ffffffffffffffffffffffffffffffffffffffff16141562000441576200042b836200061060201b60201c565b6200043b6200067360201b60201c565b62000464565b62000452836200061060201b60201c565b62000463826200061060201b60201c565b5b5b505050565b6040518060800160405280604f815260200162003b3b604f91398051906020012081805190602001206040518060400160405280600181526020017f31000000000000000000000000000000000000000000000000000000000000008152508051906020012030620004e16200069760201b60201c565b60001b604051602001620004fa95949392919062000a2c565b60405160208183030381529060405280519060200120600b8190555050565b6200052b8282620006a460201b60201c565b620006075760016009600084815260200190815260200160002060000160008373ffffffffffffffffffffffffffffffffffffffff1673ffffffffffffffffffffffffffffffffffffffff16815260200190815260200160002060006101000a81548160ff021916908315150217905550620005ac6200070f60201b60201c565b73ffffffffffffffffffffffffffffffffffffffff168173ffffffffffffffffffffffffffffffffffffffff16837f2f8788117e7eff1d82e926ec794901d17c78024a50270940304540a733656f0d60405160405180910390a45b5050565b505050565b62000670600560008373ffffffffffffffffffffffffffffffffffffffff1673ffffffffffffffffffffffffffffffffffffffff16815260200190815260200160002062000664836200071760201b60201c565b6200075f60201b60201c565b50565b62000695600662000689620007f260201b60201c565b6200075f60201b60201c565b565b6000804690508091505090565b60006009600084815260200190815260200160002060000160008373ffffffffffffffffffffffffffffffffffffffff1673ffffffffffffffffffffffffffffffffffffffff16815260200190815260200160002060009054906101000a900460ff16905092915050565b600033905090565b60008060008373ffffffffffffffffffffffffffffffffffffffff1673ffffffffffffffffffffffffffffffffffffffff168152602001908152602001600020549050919050565b6000620007786008620007fc60201b620010761760201c565b9050806200078f846000016200080a60201b60201c565b1015620007ed5782600001819080600181540180825580915050600190039060005260206000200160009091909190915055826001018290806001815401808255809150506001900390600052602060002001600090919091909150555b505050565b6000600254905090565b600081600001549050919050565b600080828054905014156200082357600090506200087d565b816001838054905062000837919062000b58565b815481106200086f577f4e487b7100000000000000000000000000000000000000000000000000000000600052603260045260246000fd5b906000526020600020015490505b919050565b828054620008909062000bdb565b90600052602060002090601f016020900481019282620008b4576000855562000900565b82601f10620008cf57805160ff191683800117855562000900565b8280016001018555821562000900579182015b82811115620008ff578251825591602001919060010190620008e2565b5b5090506200090f919062000913565b5090565b5b808211156200092e57600081600090555060010162000914565b5090565b600081519050620009438162000c6f565b92915050565b6000602082840312156200095c57600080fd5b60006200096c8482850162000932565b91505092915050565b620009808162000b93565b82525050565b620009918162000ba7565b82525050565b6000620009a6600e8362000aea565b91507f616c726561647920696e697465640000000000000000000000000000000000006000830152602082019050919050565b6000620009e8601f8362000aea565b91507f45524332303a206d696e7420746f20746865207a65726f2061646472657373006000830152602082019050919050565b62000a268162000bd1565b82525050565b600060a08201905062000a43600083018862000986565b62000a52602083018762000986565b62000a61604083018662000986565b62000a70606083018562000975565b62000a7f608083018462000986565b9695505050505050565b6000602082019050818103600083015262000aa48162000997565b9050919050565b6000602082019050818103600083015262000ac681620009d9565b9050919050565b600060208201905062000ae4600083018462000a1b565b92915050565b600082825260208201905092915050565b600062000b088262000bd1565b915062000b158362000bd1565b9250827fffffffffffffffffffffffffffffffffffffffffffffffffffffffffffffffff0382111562000b4d5762000b4c62000c11565b5b828201905092915050565b600062000b658262000bd1565b915062000b728362000bd1565b92508282101562000b885762000b8762000c11565b5b828203905092915050565b600062000ba08262000bb1565b9050919050565b6000819050919050565b600073ffffffffffffffffffffffffffffffffffffffff82169050919050565b6000819050919050565b6000600282049050600182168062000bf457607f821691505b6020821081141562000c0b5762000c0a62000c40565b5b50919050565b7f4e487b7100000000000000000000000000000000000000000000000000000000600052601160045260246000fd5b7f4e487b7100000000000000000000000000000000000000000000000000000000600052602260045260246000fd5b62000c7a8162000b93565b811462000c8657600080fd5b50565b612ea28062000c996000396000f3fe608060405234801561001057600080fd5b50600436106101c45760003560e01c806339509351116100f95780639711715a11610097578063a457c2d711610071578063a457c2d714610533578063a9059cbb14610563578063d547741f14610593578063dd62ed3e146105af576101c4565b80639711715a146104db578063981b24d0146104e5578063a217fddf14610515576101c4565b80634ee2cd7e116100d35780634ee2cd7e1461042d57806370a082311461045d57806391d148541461048d57806395d89b41146104bd576101c4565b806339509351146103b15780634000aea0146103e157806342966c6814610411576101c4565b8063248a9ca3116101665780632ff2e9dc116101405780632ff2e9dc1461033b578063313ce567146103595780633408e4701461037757806336568abe14610395576101c4565b8063248a9ca3146102d1578063282c51f3146103015780632f2ff15d1461031f576101c4565b80630f7e5970116101a25780630f7e59701461024757806318160ddd1461026557806320379ee51461028357806323b872dd146102a1576101c4565b806301ffc9a7146101c957806306fdde03146101f9578063095ea7b314610217575b600080fd5b6101e360048036038101906101de919061208c565b6105df565b6040516101f091906127e1565b60405180910390f35b610201610659565b60405161020e9190612817565b60405180910390f35b610231600480360381019061022c9190611f84565b6106eb565b60405161023e91906127e1565b60405180910390f35b61024f610709565b60405161025c9190612817565b60405180910390f35b61026d610742565b60405161027a9190612a59565b60405180910390f35b61028b61074c565b60405161029891906127fc565b60405180910390f35b6102bb60048036038101906102b69190611f35565b610756565b6040516102c891906127e1565b60405180910390f35b6102eb60048036038101906102e69190612027565b610857565b6040516102f891906127fc565b60405180910390f35b610309610877565b60405161031691906127fc565b60405180910390f35b61033960048036038101906103349190612050565b61089b565b005b610343610901565b6040516103509190612a59565b60405180910390f35b610361610911565b60405161036e9190612aa4565b60405180910390f35b61037f61091a565b60405161038c9190612a59565b60405180910390f35b6103af60048036038101906103aa9190612050565b610927565b005b6103cb60048036038101906103c69190611f84565b6109aa565b6040516103d891906127e1565b60405180910390f35b6103fb60048036038101906103f69190611fc0565b610a56565b60405161040891906127e1565b60405180910390f35b61042b600480360381019061042691906120b5565b610b67565b005b61044760048036038101906104429190611f84565b610c27565b6040516104549190612a59565b60405180910390f35b61047760048036038101906104729190611ed0565b610c97565b6040516104849190612a59565b60405180910390f35b6104a760048036038101906104a29190612050565b610cdf565b6040516104b491906127e1565b60405180910390f35b6104c5610d4a565b6040516104d29190612817565b60405180910390f35b6104e3610ddc565b005b6104ff60048036038101906104fa91906120b5565b610e3a565b60405161050c9190612a59565b60405180910390f35b61051d610e6b565b60405161052a91906127fc565b60405180910390f35b61054d60048036038101906105489190611f84565b610e72565b60405161055a91906127e1565b60405180910390f35b61057d60048036038101906105789190611f84565b610f66565b60405161058a91906127e1565b60405180910390f35b6105ad60048036038101906105a89190612050565b610f84565b005b6105c960048036038101906105c49190611ef9565b610fea565b6040516105d69190612a59565b60405180910390f35b60007f7965db0b000000000000000000000000000000000000000000000000000000007bffffffffffffffffffffffffffffffffffffffffffffffffffffffff1916827bffffffffffffffffffffffffffffffffffffffffffffffffffffffff19161480610652575061065182611084565b5b9050919050565b60606003805461066890612ce0565b80601f016020809104026020016040519081016040528092919081815260200182805461069490612ce0565b80156106e15780601f106106b6576101008083540402835291602001916106e1565b820191906000526020600020905b8154815290600101906020018083116106c457829003601f168201915b5050505050905090565b60006106ff6106f86110ee565b84846110f6565b6001905092915050565b6040518060400160405280600181526020017f310000000000000000000000000000000000000000000000000000000000000081525081565b6000600254905090565b6000600b54905090565b60006107638484846112c1565b6000600160008673ffffffffffffffffffffffffffffffffffffffff1673ffffffffffffffffffffffffffffffffffffffff16815260200190815260200160002060006107ae6110ee565b73ffffffffffffffffffffffffffffffffffffffff1673ffffffffffffffffffffffffffffffffffffffff1681526020019081526020016000205490508281101561082e576040517f08c379a000000000000000000000000000000000000000000000000000000000815260040161082590612959565b60405180910390fd5b61084b8561083a6110ee565b85846108469190612bdf565b6110f6565b60019150509392505050565b600060096000838152602001908152602001600020600101549050919050565b7f3c11d16cbaffd01df69ce1c404f6340ee057498f5f00246190ea54220576a84881565b6108b46108a783610857565b6108af6110ee565b610cdf565b6108f3576040517f08c379a00000000000000000000000000000000000000000000000000000000081526004016108ea90612899565b60405180910390fd5b6108fd8282611540565b5050565b6b033b2e3c9fd0803ce800000081565b60006012905090565b6000804690508091505090565b61092f6110ee565b73ffffffffffffffffffffffffffffffffffffffff168173ffffffffffffffffffffffffffffffffffffffff161461099c576040517f08c379a000000000000000000000000000000000000000000000000000000000815260040161099390612a39565b60405180910390fd5b6109a68282611621565b5050565b6000610a4c6109b76110ee565b8484600160006109c56110ee565b73ffffffffffffffffffffffffffffffffffffffff1673ffffffffffffffffffffffffffffffffffffffff16815260200190815260200160002060008873ffffffffffffffffffffffffffffffffffffffff1673ffffffffffffffffffffffffffffffffffffffff16815260200190815260200160002054610a479190612b58565b6110f6565b6001905092915050565b6000610a628484610f66565b508373ffffffffffffffffffffffffffffffffffffffff16610a826110ee565b73ffffffffffffffffffffffffffffffffffffffff167fe19260aff97b920c7df27010903aeb9c8d2be5d310a2c67824cf3f15396e4c168585604051610ac9929190612a74565b60405180910390a3610ada84611703565b15610b5c5760008490508073ffffffffffffffffffffffffffffffffffffffff1663a4c0ed36610b086110ee565b86866040518463ffffffff1660e01b8152600401610b28939291906127a3565b600060405180830381600087803b158015610b4257600080fd5b505af1158015610b56573d6000803e3d6000fd5b50505050505b600190509392505050565b610b987f3c11d16cbaffd01df69ce1c404f6340ee057498f5f00246190ea54220576a848610b936110ee565b610cdf565b610bd7576040517f08c379a0000000000000000000000000000000000000000000000000000000008152600401610bce90612939565b60405180910390fd5b60008111610c1a576040517f08c379a0000000000000000000000000000000000000000000000000000000008152600401610c11906129f9565b60405180910390fd5b610c243382611716565b50565b6000806000610c7484600560008873ffffffffffffffffffffffffffffffffffffffff1673ffffffffffffffffffffffffffffffffffffffff1681526020019081526020016000206118ea565b9150915081610c8b57610c8685610c97565b610c8d565b805b9250505092915050565b60008060008373ffffffffffffffffffffffffffffffffffffffff1673ffffffffffffffffffffffffffffffffffffffff168152602001908152602001600020549050919050565b60006009600084815260200190815260200160002060000160008373ffffffffffffffffffffffffffffffffffffffff1673ffffffffffffffffffffffffffffffffffffffff16815260200190815260200160002060009054906101000a900460ff16905092915050565b606060048054610d5990612ce0565b80601f0160208091040260200160405190810160405280929190818152602001828054610d8590612ce0565b8015610dd25780601f10610da757610100808354040283529160200191610dd2565b820191906000526020600020905b815481529060010190602001808311610db557829003601f168201915b5050505050905090565b610df06000801b610deb6110ee565b610cdf565b610e2f576040517f08c379a0000000000000000000000000000000000000000000000000000000008152600401610e2690612839565b60405180910390fd5b610e37611a08565b50565b6000806000610e4a8460066118ea565b9150915081610e6057610e5b610742565b610e62565b805b92505050919050565b6000801b81565b60008060016000610e816110ee565b73ffffffffffffffffffffffffffffffffffffffff1673ffffffffffffffffffffffffffffffffffffffff16815260200190815260200160002060008573ffffffffffffffffffffffffffffffffffffffff1673ffffffffffffffffffffffffffffffffffffffff16815260200190815260200160002054905082811015610f3e576040517f08c379a0000000000000000000000000000000000000000000000000000000008152600401610f3590612a19565b60405180910390fd5b610f5b610f496110ee565b858584610f569190612bdf565b6110f6565b600191505092915050565b6000610f7a610f736110ee565b84846112c1565b6001905092915050565b610f9d610f9083610857565b610f986110ee565b610cdf565b610fdc576040517f08c379a0000000000000000000000000000000000000000000000000000000008152600401610fd390612919565b60405180910390fd5b610fe68282611621565b5050565b6000600160008473ffffffffffffffffffffffffffffffffffffffff1673ffffffffffffffffffffffffffffffffffffffff16815260200190815260200160002060008373ffffffffffffffffffffffffffffffffffffffff1673ffffffffffffffffffffffffffffffffffffffff16815260200190815260200160002054905092915050565b505050565b600081600001549050919050565b60007f01ffc9a7000000000000000000000000000000000000000000000000000000007bffffffffffffffffffffffffffffffffffffffffffffffffffffffff1916827bffffffffffffffffffffffffffffffffffffffffffffffffffffffff1916149050919050565b600033905090565b600073ffffffffffffffffffffffffffffffffffffffff168373ffffffffffffffffffffffffffffffffffffffff161415611166576040517f08c379a000000000000000000000000000000000000000000000000000000000815260040161115d906129b9565b60405180910390fd5b600073ffffffffffffffffffffffffffffffffffffffff168273ffffffffffffffffffffffffffffffffffffffff1614156111d6576040517f08c379a00000000000000000000000000000000000000000000000000000000081526004016111cd906128d9565b60405180910390fd5b80600160008573ffffffffffffffffffffffffffffffffffffffff1673ffffffffffffffffffffffffffffffffffffffff16815260200190815260200160002060008473ffffffffffffffffffffffffffffffffffffffff1673ffffffffffffffffffffffffffffffffffffffff168152602001908152602001600020819055508173ffffffffffffffffffffffffffffffffffffffff168373ffffffffffffffffffffffffffffffffffffffff167f8c5be1e5ebec7d5bd14f71427d1e84f3dd0314c0f7b2291e5b200ac8c7c3b925836040516112b49190612a59565b60405180910390a3505050565b600073ffffffffffffffffffffffffffffffffffffffff168373ffffffffffffffffffffffffffffffffffffffff161415611331576040517f08c379a000000000000000000000000000000000000000000000000000000000815260040161132890612999565b60405180910390fd5b600073ffffffffffffffffffffffffffffffffffffffff168273ffffffffffffffffffffffffffffffffffffffff1614156113a1576040517f08c379a000000000000000000000000000000000000000000000000000000000815260040161139890612879565b60405180910390fd5b6113ac838383611a60565b60008060008573ffffffffffffffffffffffffffffffffffffffff1673ffffffffffffffffffffffffffffffffffffffff16815260200190815260200160002054905081811015611432576040517f08c379a0000000000000000000000000000000000000000000000000000000008152600401611429906128f9565b60405180910390fd5b818161143e9190612bdf565b6000808673ffffffffffffffffffffffffffffffffffffffff1673ffffffffffffffffffffffffffffffffffffffff16815260200190815260200160002081905550816000808573ffffffffffffffffffffffffffffffffffffffff1673ffffffffffffffffffffffffffffffffffffffff16815260200190815260200160002060008282546114ce9190612b58565b925050819055508273ffffffffffffffffffffffffffffffffffffffff168473ffffffffffffffffffffffffffffffffffffffff167fddf252ad1be2c89b69c2b068fc378daa952ba7f163c4a11628f55a4df523b3ef846040516115329190612a59565b60405180910390a350505050565b61154a8282610cdf565b61161d5760016009600084815260200190815260200160002060000160008373ffffffffffffffffffffffffffffffffffffffff1673ffffffffffffffffffffffffffffffffffffffff16815260200190815260200160002060006101000a81548160ff0219169083151502179055506115c26110ee565b73ffffffffffffffffffffffffffffffffffffffff168173ffffffffffffffffffffffffffffffffffffffff16837f2f8788117e7eff1d82e926ec794901d17c78024a50270940304540a733656f0d60405160405180910390a45b5050565b61162b8282610cdf565b156116ff5760006009600084815260200190815260200160002060000160008373ffffffffffffffffffffffffffffffffffffffff1673ffffffffffffffffffffffffffffffffffffffff16815260200190815260200160002060006101000a81548160ff0219169083151502179055506116a46110ee565b73ffffffffffffffffffffffffffffffffffffffff168173ffffffffffffffffffffffffffffffffffffffff16837ff6391f5c32d9c69d2a47ea670b442974b53935d1edc7fd64eb21e047a839171b60405160405180910390a45b5050565b600080823b905060008111915050919050565b600073ffffffffffffffffffffffffffffffffffffffff168273ffffffffffffffffffffffffffffffffffffffff161415611786576040517f08c379a000000000000000000000000000000000000000000000000000000000815260040161177d90612979565b60405180910390fd5b61179282600083611a60565b60008060008473ffffffffffffffffffffffffffffffffffffffff1673ffffffffffffffffffffffffffffffffffffffff16815260200190815260200160002054905081811015611818576040517f08c379a000000000000000000000000000000000000000000000000000000000815260040161180f906128b9565b60405180910390fd5b81816118249190612bdf565b6000808573ffffffffffffffffffffffffffffffffffffffff1673ffffffffffffffffffffffffffffffffffffffff1681526020019081526020016000208190555081600260008282546118789190612bdf565b92505081905550600073ffffffffffffffffffffffffffffffffffffffff168373ffffffffffffffffffffffffffffffffffffffff167fddf252ad1be2c89b69c2b068fc378daa952ba7f163c4a11628f55a4df523b3ef846040516118dd9190612a59565b60405180910390a3505050565b60008060008411611930576040517f08c379a0000000000000000000000000000000000000000000000000000000008152600401611927906129d9565b60405180910390fd5b61193a6008611076565b84111561197c576040517f08c379a000000000000000000000000000000000000000000000000000000000815260040161197390612859565b60405180910390fd5b60006119948585600001611b1a90919063ffffffff16565b905083600001805490508114156119b2576000809250925050611a01565b60018460010182815481106119f0577f4e487b7100000000000000000000000000000000000000000000000000000000600052603260045260246000fd5b906000526020600020015492509250505b9250929050565b6000611a146008611c40565b6000611a206008611076565b90507f8030e83b04d87bef53480e26263266d6ca66863aa8506aca6f2559d18aa1cb6781604051611a519190612a59565b60405180910390a18091505090565b611a6b838383611071565b600073ffffffffffffffffffffffffffffffffffffffff168373ffffffffffffffffffffffffffffffffffffffff161415611ab657611aa982611c56565b611ab1611ca9565b611b15565b600073ffffffffffffffffffffffffffffffffffffffff168273ffffffffffffffffffffffffffffffffffffffff161415611b0157611af483611c56565b611afc611ca9565b611b14565b611b0a83611c56565b611b1382611c56565b5b5b505050565b60008083805490501415611b315760009050611c3a565b600080848054905090505b80821015611bbb576000611b508383611cbd565b905084868281548110611b8c577f4e487b7100000000000000000000000000000000000000000000000000000000600052603260045260246000fd5b90600052602060002001541115611ba557809150611bb5565b600181611bb29190612b58565b92505b50611b3c565b600082118015611c1957508385600184611bd59190612bdf565b81548110611c0c577f4e487b7100000000000000000000000000000000000000000000000000000000600052603260045260246000fd5b9060005260206000200154145b15611c3457600182611c2b9190612bdf565b92505050611c3a565b81925050505b92915050565b6001816000016000828254019250508190555050565b611ca6600560008373ffffffffffffffffffffffffffffffffffffffff1673ffffffffffffffffffffffffffffffffffffffff168152602001908152602001600020611ca183610c97565b611d24565b50565b611cbb6006611cb6610742565b611d24565b565b600060028083611ccd9190612d12565b600285611cda9190612d12565b611ce49190612b58565b611cee9190612bae565b600283611cfb9190612bae565b600285611d089190612bae565b611d129190612b58565b611d1c9190612b58565b905092915050565b6000611d306008611076565b905080611d3f84600001611da1565b1015611d9c5782600001819080600181540180825580915050600190039060005260206000200160009091909190915055826001018290806001815401808255809150506001900390600052602060002001600090919091909150555b505050565b60008082805490501415611db85760009050611e0f565b8160018380549050611dca9190612bdf565b81548110611e01577f4e487b7100000000000000000000000000000000000000000000000000000000600052603260045260246000fd5b906000526020600020015490505b919050565b6000611e27611e2284612af0565b612abf565b905082815260208101848484011115611e3f57600080fd5b611e4a848285612c9e565b509392505050565b600081359050611e6181612e10565b92915050565b600081359050611e7681612e27565b92915050565b600081359050611e8b81612e3e565b92915050565b600082601f830112611ea257600080fd5b8135611eb2848260208601611e14565b91505092915050565b600081359050611eca81612e55565b92915050565b600060208284031215611ee257600080fd5b6000611ef084828501611e52565b91505092915050565b60008060408385031215611f0c57600080fd5b6000611f1a85828601611e52565b9250506020611f2b85828601611e52565b9150509250929050565b600080600060608486031215611f4a57600080fd5b6000611f5886828701611e52565b9350506020611f6986828701611e52565b9250506040611f7a86828701611ebb565b9150509250925092565b60008060408385031215611f9757600080fd5b6000611fa585828601611e52565b9250506020611fb685828601611ebb565b9150509250929050565b600080600060608486031215611fd557600080fd5b6000611fe386828701611e52565b9350506020611ff486828701611ebb565b925050604084013567ffffffffffffffff81111561201157600080fd5b61201d86828701611e91565b9150509250925092565b60006020828403121561203957600080fd5b600061204784828501611e67565b91505092915050565b6000806040838503121561206357600080fd5b600061207185828601611e67565b925050602061208285828601611e52565b9150509250929050565b60006020828403121561209e57600080fd5b60006120ac84828501611e7c565b91505092915050565b6000602082840312156120c757600080fd5b60006120d584828501611ebb565b91505092915050565b6120e781612c13565b82525050565b6120f681612c25565b82525050565b61210581612c31565b82525050565b600061211682612b20565b6121208185612b36565b9350612130818560208601612cad565b61213981612dff565b840191505092915050565b600061214f82612b2b565b6121598185612b47565b9350612169818560208601612cad565b61217281612dff565b840191505092915050565b600061218a601583612b47565b91507f43616c6c6572206973206e6f7420612061646d696e00000000000000000000006000830152602082019050919050565b60006121ca601d83612b47565b91507f4552433230536e617073686f743a206e6f6e6578697374656e742069640000006000830152602082019050919050565b600061220a602383612b47565b91507f45524332303a207472616e7366657220746f20746865207a65726f206164647260008301527f65737300000000000000000000000000000000000000000000000000000000006020830152604082019050919050565b6000612270602f83612b47565b91507f416363657373436f6e74726f6c3a2073656e646572206d75737420626520616e60008301527f2061646d696e20746f206772616e7400000000000000000000000000000000006020830152604082019050919050565b60006122d6602283612b47565b91507f45524332303a206275726e20616d6f756e7420657863656564732062616c616e60008301527f63650000000000000000000000000000000000000000000000000000000000006020830152604082019050919050565b600061233c602283612b47565b91507f45524332303a20617070726f766520746f20746865207a65726f20616464726560008301527f73730000000000000000000000000000000000000000000000000000000000006020830152604082019050919050565b60006123a2602683612b47565b91507f45524332303a207472616e7366657220616d6f756e742065786365656473206260008301527f616c616e636500000000000000000000000000000000000000000000000000006020830152604082019050919050565b6000612408603083612b47565b91507f416363657373436f6e74726f6c3a2073656e646572206d75737420626520616e60008301527f2061646d696e20746f207265766f6b65000000000000000000000000000000006020830152604082019050919050565b600061246e601683612b47565b91507f43616c6c6572206973206e6f742061206275726e6572000000000000000000006000830152602082019050919050565b60006124ae602883612b47565b91507f45524332303a207472616e7366657220616d6f756e742065786365656473206160008301527f6c6c6f77616e63650000000000000000000000000000000000000000000000006020830152604082019050919050565b6000612514602183612b47565b91507f45524332303a206275726e2066726f6d20746865207a65726f2061646472657360008301527f73000000000000000000000000000000000000000000000000000000000000006020830152604082019050919050565b600061257a602583612b47565b91507f45524332303a207472616e736665722066726f6d20746865207a65726f20616460008301527f64726573730000000000000000000000000000000000000000000000000000006020830152604082019050919050565b60006125e0602483612b47565b91507f45524332303a20617070726f76652066726f6d20746865207a65726f2061646460008301527f72657373000000000000000000000000000000000000000000000000000000006020830152604082019050919050565b6000612646601683612b47565b91507f4552433230536e617073686f743a2069642069732030000000000000000000006000830152602082019050919050565b6000612686601d83612b47565b91507f416d6f756e7420746f206275726e2063616e6e6f74206265207a65726f0000006000830152602082019050919050565b60006126c6602583612b47565b91507f45524332303a2064656372656173656420616c6c6f77616e63652062656c6f7760008301527f207a65726f0000000000000000000000000000000000000000000000000000006020830152604082019050919050565b600061272c602f83612b47565b91507f416363657373436f6e74726f6c3a2063616e206f6e6c792072656e6f756e636560008301527f20726f6c657320666f722073656c6600000000000000000000000000000000006020830152604082019050919050565b61278e81612c87565b82525050565b61279d81612c91565b82525050565b60006060820190506127b860008301866120de565b6127c56020830185612785565b81810360408301526127d7818461210b565b9050949350505050565b60006020820190506127f660008301846120ed565b92915050565b600060208201905061281160008301846120fc565b92915050565b600060208201905081810360008301526128318184612144565b905092915050565b600060208201905081810360008301526128528161217d565b9050919050565b60006020820190508181036000830152612872816121bd565b9050919050565b60006020820190508181036000830152612892816121fd565b9050919050565b600060208201905081810360008301526128b281612263565b9050919050565b600060208201905081810360008301526128d2816122c9565b9050919050565b600060208201905081810360008301526128f28161232f565b9050919050565b6000602082019050818103600083015261291281612395565b9050919050565b60006020820190508181036000830152612932816123fb565b9050919050565b6000602082019050818103600083015261295281612461565b9050919050565b60006020820190508181036000830152612972816124a1565b9050919050565b6000602082019050818103600083015261299281612507565b9050919050565b600060208201905081810360008301526129b28161256d565b9050919050565b600060208201905081810360008301526129d2816125d3565b9050919050565b600060208201905081810360008301526129f281612639565b9050919050565b60006020820190508181036000830152612a1281612679565b9050919050565b60006020820190508181036000830152612a32816126b9565b9050919050565b60006020820190508181036000830152612a528161271f565b9050919050565b6000602082019050612a6e6000830184612785565b92915050565b6000604082019050612a896000830185612785565b8181036020830152612a9b818461210b565b90509392505050565b6000602082019050612ab96000830184612794565b92915050565b6000604051905081810181811067ffffffffffffffff82111715612ae657612ae5612dd0565b5b8060405250919050565b600067ffffffffffffffff821115612b0b57612b0a612dd0565b5b601f19601f8301169050602081019050919050565b600081519050919050565b600081519050919050565b600082825260208201905092915050565b600082825260208201905092915050565b6000612b6382612c87565b9150612b6e83612c87565b9250827fffffffffffffffffffffffffffffffffffffffffffffffffffffffffffffffff03821115612ba357612ba2612d43565b5b828201905092915050565b6000612bb982612c87565b9150612bc483612c87565b925082612bd457612bd3612d72565b5b828204905092915050565b6000612bea82612c87565b9150612bf583612c87565b925082821015612c0857612c07612d43565b5b828203905092915050565b6000612c1e82612c67565b9050919050565b60008115159050919050565b6000819050919050565b60007fffffffff0000000000000000000000000000000000000000000000000000000082169050919050565b600073ffffffffffffffffffffffffffffffffffffffff82169050919050565b6000819050919050565b600060ff82169050919050565b82818337600083830152505050565b60005b83811015612ccb578082015181840152602081019050612cb0565b83811115612cda576000848401525b50505050565b60006002820490506001821680612cf857607f821691505b60208210811415612d0c57612d0b612da1565b5b50919050565b6000612d1d82612c87565b9150612d2883612c87565b925082612d3857612d37612d72565b5b828206905092915050565b7f4e487b7100000000000000000000000000000000000000000000000000000000600052601160045260246000fd5b7f4e487b7100000000000000000000000000000000000000000000000000000000600052601260045260246000fd5b7f4e487b7100000000000000000000000000000000000000000000000000000000600052602260045260246000fd5b7f4e487b7100000000000000000000000000000000000000000000000000000000600052604160045260246000fd5b6000601f19601f8301169050919050565b612e1981612c13565b8114612e2457600080fd5b50565b612e3081612c31565b8114612e3b57600080fd5b50565b612e4781612c3b565b8114612e5257600080fd5b50565b612e5e81612c87565b8114612e6957600080fd5b5056fea26469706673582212200ab5d51bbae018709cfb0c99a172e817f7fed71e9bb93270a7afded5f3219adb64736f6c63430008000033454950373132446f6d61696e28737472696e67206e616d652c737472696e672076657273696f6e2c6164647265737320766572696679696e67436f6e74726163742c627974657333322073616c7429",
  "immutableReferences": {},
  "source": "\r\n// SPDX-License-Identifier: MIT\r\npragma solidity ^0.8.0;\r\n\r\nimport \"@openzeppelin/contracts/token/ERC20/extensions/ERC20Snapshot.sol\";\r\nimport \"@openzeppelin/contracts/access/AccessControl.sol\";\r\nimport \"./EIP712/EIP712Base.sol\";\r\nimport \"./ERC677/IERC677Receiver.sol\";\r\n\r\n\r\n// ERC20 token\r\n// - Burnable\r\n// - Snapshot\r\n// - EIP712 - human readable signed messages\r\n// - ERC677 - transfer and call - approve tokens and call a function on another contract in one transaction\r\ncontract WasderToken is ERC20Snapshot, AccessControl, EIP712Base {\r\n\r\n    uint256 public constant INITIAL_SUPPLY = 1000000000 * 10**18; //1,000,000,000 tokens (18 decimals)\r\n\r\n    bytes32 public constant BURNER_ROLE = keccak256(\"BURNER_ROLE\");\r\n\r\n    constructor(address to) ERC20(\"Wasder Token\", \"WAS\") {\r\n        _mint(to, INITIAL_SUPPLY); \r\n\r\n        _initializeEIP712(\"Wasder Token\"); // domain\r\n\r\n        _setupRole(DEFAULT_ADMIN_ROLE, to);\r\n\r\n    }\r\n\r\n    function burn(uint256 amount) external {\r\n        require(hasRole(BURNER_ROLE, _msgSender()), \"Caller is not a burner\");\r\n        require(amount > 0, \"Amount to burn cannot be zero\");\r\n\r\n        _burn(msg.sender, amount);\r\n    }\r\n\r\n    function snapshot() external {\r\n        require(hasRole(DEFAULT_ADMIN_ROLE, _msgSender()), \"Caller is not a admin\");\r\n\r\n        _snapshot();\r\n    }\r\n\r\n    // ERC677 Transfer and call\r\n    event Transfer(address indexed from, address indexed to, uint256 value, bytes data);\r\n\r\n    /**\r\n    * @dev transfer token to a contract address with additional data if the recipient is a contact.\r\n    * @param _to The address to transfer to.\r\n    * @param _value The amount to be transferred.\r\n    * @param _data The extra data to be passed to the receiving contract.\r\n    */\r\n    function transferAndCall(address _to, uint _value, bytes memory _data)\r\n        external\r\n        returns (bool success)\r\n    {\r\n        super.transfer(_to, _value);\r\n        emit Transfer(_msgSender(), _to, _value, _data);\r\n        if (isContract(_to)) {\r\n            IERC677Receiver receiver = IERC677Receiver(_to);\r\n            receiver.onTokenTransfer(_msgSender(), _value, _data);\r\n        }\r\n        return true;\r\n    }\r\n\r\n    function isContract(address _addr) private view returns (bool hasCode)\r\n    {\r\n        uint length;\r\n        assembly { length := extcodesize(_addr) }\r\n        return length > 0;\r\n    }\r\n\r\n}",
  "sourcePath": "C:/repos/wasder-token/contracts/WasderToken.sol",
  "compiler": {
    "name": "solc",
    "version": "0.8.0+commit.c7dfd78e.Emscripten.clang"
  },
  "schemaVersion": "3.3.4",
  "updatedAt": "2021-04-30T19:06:22.711Z",
  "networkType": "ethereum",
  "devdoc": {
    "kind": "dev",
    "methods": {
      "allowance(address,address)": {
        "details": "See {IERC20-allowance}."
      },
      "approve(address,uint256)": {
        "details": "See {IERC20-approve}. Requirements: - `spender` cannot be the zero address."
      },
      "balanceOf(address)": {
        "details": "See {IERC20-balanceOf}."
      },
      "balanceOfAt(address,uint256)": {
        "details": "Retrieves the balance of `account` at the time `snapshotId` was created."
      },
      "decimals()": {
        "details": "Returns the number of decimals used to get its user representation. For example, if `decimals` equals `2`, a balance of `505` tokens should be displayed to a user as `5,05` (`505 / 10 ** 2`). Tokens usually opt for a value of 18, imitating the relationship between Ether and Wei. This is the value {ERC20} uses, unless this function is overloaded; NOTE: This information is only used for _display_ purposes: it in no way affects any of the arithmetic of the contract, including {IERC20-balanceOf} and {IERC20-transfer}."
      },
      "decreaseAllowance(address,uint256)": {
        "details": "Atomically decreases the allowance granted to `spender` by the caller. This is an alternative to {approve} that can be used as a mitigation for problems described in {IERC20-approve}. Emits an {Approval} event indicating the updated allowance. Requirements: - `spender` cannot be the zero address. - `spender` must have allowance for the caller of at least `subtractedValue`."
      },
      "getRoleAdmin(bytes32)": {
        "details": "Returns the admin role that controls `role`. See {grantRole} and {revokeRole}. To change a role's admin, use {_setRoleAdmin}."
      },
      "grantRole(bytes32,address)": {
        "details": "Grants `role` to `account`. If `account` had not been already granted `role`, emits a {RoleGranted} event. Requirements: - the caller must have ``role``'s admin role."
      },
      "hasRole(bytes32,address)": {
        "details": "Returns `true` if `account` has been granted `role`."
      },
      "increaseAllowance(address,uint256)": {
        "details": "Atomically increases the allowance granted to `spender` by the caller. This is an alternative to {approve} that can be used as a mitigation for problems described in {IERC20-approve}. Emits an {Approval} event indicating the updated allowance. Requirements: - `spender` cannot be the zero address."
      },
      "name()": {
        "details": "Returns the name of the token."
      },
      "renounceRole(bytes32,address)": {
        "details": "Revokes `role` from the calling account. Roles are often managed via {grantRole} and {revokeRole}: this function's purpose is to provide a mechanism for accounts to lose their privileges if they are compromised (such as when a trusted device is misplaced). If the calling account had been granted `role`, emits a {RoleRevoked} event. Requirements: - the caller must be `account`."
      },
      "revokeRole(bytes32,address)": {
        "details": "Revokes `role` from `account`. If `account` had been granted `role`, emits a {RoleRevoked} event. Requirements: - the caller must have ``role``'s admin role."
      },
      "supportsInterface(bytes4)": {
        "details": "See {IERC165-supportsInterface}."
      },
      "symbol()": {
        "details": "Returns the symbol of the token, usually a shorter version of the name."
      },
      "totalSupply()": {
        "details": "See {IERC20-totalSupply}."
      },
      "totalSupplyAt(uint256)": {
        "details": "Retrieves the total supply at the time `snapshotId` was created."
      },
      "transfer(address,uint256)": {
        "details": "See {IERC20-transfer}. Requirements: - `recipient` cannot be the zero address. - the caller must have a balance of at least `amount`."
      },
      "transferAndCall(address,uint256,bytes)": {
        "details": "transfer token to a contract address with additional data if the recipient is a contact.",
        "params": {
          "_data": "The extra data to be passed to the receiving contract.",
          "_to": "The address to transfer to.",
          "_value": "The amount to be transferred."
        }
      },
      "transferFrom(address,address,uint256)": {
        "details": "See {IERC20-transferFrom}. Emits an {Approval} event indicating the updated allowance. This is not required by the EIP. See the note at the beginning of {ERC20}. Requirements: - `sender` and `recipient` cannot be the zero address. - `sender` must have a balance of at least `amount`. - the caller must have allowance for ``sender``'s tokens of at least `amount`."
      }
    },
    "version": 1
  },
  "userdoc": {
    "kind": "user",
    "methods": {},
    "version": 1
  }
}