{
  "contractName": "WasderToken",
  "abi": [
    {
      "inputs": [
        {
          "internalType": "address",
          "name": "to",
          "type": "address"
        }
      ],
      "stateMutability": "nonpayable",
      "type": "constructor"
    },
    {
      "anonymous": false,
      "inputs": [
        {
          "indexed": true,
          "internalType": "address",
          "name": "owner",
          "type": "address"
        },
        {
          "indexed": true,
          "internalType": "address",
          "name": "spender",
          "type": "address"
        },
        {
          "indexed": false,
          "internalType": "uint256",
          "name": "value",
          "type": "uint256"
        }
      ],
      "name": "Approval",
      "type": "event"
    },
    {
      "anonymous": false,
      "inputs": [
        {
          "indexed": true,
          "internalType": "bytes32",
          "name": "role",
          "type": "bytes32"
        },
        {
          "indexed": true,
          "internalType": "bytes32",
          "name": "previousAdminRole",
          "type": "bytes32"
        },
        {
          "indexed": true,
          "internalType": "bytes32",
          "name": "newAdminRole",
          "type": "bytes32"
        }
      ],
      "name": "RoleAdminChanged",
      "type": "event"
    },
    {
      "anonymous": false,
      "inputs": [
        {
          "indexed": true,
          "internalType": "bytes32",
          "name": "role",
          "type": "bytes32"
        },
        {
          "indexed": true,
          "internalType": "address",
          "name": "account",
          "type": "address"
        },
        {
          "indexed": true,
          "internalType": "address",
          "name": "sender",
          "type": "address"
        }
      ],
      "name": "RoleGranted",
      "type": "event"
    },
    {
      "anonymous": false,
      "inputs": [
        {
          "indexed": true,
          "internalType": "bytes32",
          "name": "role",
          "type": "bytes32"
        },
        {
          "indexed": true,
          "internalType": "address",
          "name": "account",
          "type": "address"
        },
        {
          "indexed": true,
          "internalType": "address",
          "name": "sender",
          "type": "address"
        }
      ],
      "name": "RoleRevoked",
      "type": "event"
    },
    {
      "anonymous": false,
      "inputs": [
        {
          "indexed": false,
          "internalType": "uint256",
          "name": "id",
          "type": "uint256"
        }
      ],
      "name": "Snapshot",
      "type": "event"
    },
    {
      "anonymous": false,
      "inputs": [
        {
          "indexed": true,
          "internalType": "address",
          "name": "from",
          "type": "address"
        },
        {
          "indexed": true,
          "internalType": "address",
          "name": "to",
          "type": "address"
        },
        {
          "indexed": false,
          "internalType": "uint256",
          "name": "value",
          "type": "uint256"
        },
        {
          "indexed": false,
          "internalType": "bytes",
          "name": "data",
          "type": "bytes"
        }
      ],
      "name": "Transfer",
      "type": "event"
    },
    {
      "anonymous": false,
      "inputs": [
        {
          "indexed": true,
          "internalType": "address",
          "name": "from",
          "type": "address"
        },
        {
          "indexed": true,
          "internalType": "address",
          "name": "to",
          "type": "address"
        },
        {
          "indexed": false,
          "internalType": "uint256",
          "name": "value",
          "type": "uint256"
        }
      ],
      "name": "Transfer",
      "type": "event"
    },
    {
      "inputs": [],
      "name": "BURNER_ROLE",
      "outputs": [
        {
          "internalType": "bytes32",
          "name": "",
          "type": "bytes32"
        }
      ],
      "stateMutability": "view",
      "type": "function"
    },
    {
      "inputs": [],
      "name": "DEFAULT_ADMIN_ROLE",
      "outputs": [
        {
          "internalType": "bytes32",
          "name": "",
          "type": "bytes32"
        }
      ],
      "stateMutability": "view",
      "type": "function"
    },
    {
      "inputs": [],
      "name": "ERC712_VERSION",
      "outputs": [
        {
          "internalType": "string",
          "name": "",
          "type": "string"
        }
      ],
      "stateMutability": "view",
      "type": "function"
    },
    {
      "inputs": [
        {
          "internalType": "address",
          "name": "owner",
          "type": "address"
        },
        {
          "internalType": "address",
          "name": "spender",
          "type": "address"
        }
      ],
      "name": "allowance",
      "outputs": [
        {
          "internalType": "uint256",
          "name": "",
          "type": "uint256"
        }
      ],
      "stateMutability": "view",
      "type": "function"
    },
    {
      "inputs": [
        {
          "internalType": "address",
          "name": "spender",
          "type": "address"
        },
        {
          "internalType": "uint256",
          "name": "amount",
          "type": "uint256"
        }
      ],
      "name": "approve",
      "outputs": [
        {
          "internalType": "bool",
          "name": "",
          "type": "bool"
        }
      ],
      "stateMutability": "nonpayable",
      "type": "function"
    },
    {
      "inputs": [
        {
          "internalType": "address",
          "name": "account",
          "type": "address"
        }
      ],
      "name": "balanceOf",
      "outputs": [
        {
          "internalType": "uint256",
          "name": "",
          "type": "uint256"
        }
      ],
      "stateMutability": "view",
      "type": "function"
    },
    {
      "inputs": [
        {
          "internalType": "address",
          "name": "account",
          "type": "address"
        },
        {
          "internalType": "uint256",
          "name": "snapshotId",
          "type": "uint256"
        }
      ],
      "name": "balanceOfAt",
      "outputs": [
        {
          "internalType": "uint256",
          "name": "",
          "type": "uint256"
        }
      ],
      "stateMutability": "view",
      "type": "function"
    },
    {
      "inputs": [],
      "name": "decimals",
      "outputs": [
        {
          "internalType": "uint8",
          "name": "",
          "type": "uint8"
        }
      ],
      "stateMutability": "view",
      "type": "function"
    },
    {
      "inputs": [
        {
          "internalType": "address",
          "name": "spender",
          "type": "address"
        },
        {
          "internalType": "uint256",
          "name": "subtractedValue",
          "type": "uint256"
        }
      ],
      "name": "decreaseAllowance",
      "outputs": [
        {
          "internalType": "bool",
          "name": "",
          "type": "bool"
        }
      ],
      "stateMutability": "nonpayable",
      "type": "function"
    },
    {
      "inputs": [],
      "name": "getChainId",
      "outputs": [
        {
          "internalType": "uint256",
          "name": "",
          "type": "uint256"
        }
      ],
      "stateMutability": "view",
      "type": "function"
    },
    {
      "inputs": [],
      "name": "getDomainSeperator",
      "outputs": [
        {
          "internalType": "bytes32",
          "name": "",
          "type": "bytes32"
        }
      ],
      "stateMutability": "view",
      "type": "function"
    },
    {
      "inputs": [
        {
          "internalType": "bytes32",
          "name": "role",
          "type": "bytes32"
        }
      ],
      "name": "getRoleAdmin",
      "outputs": [
        {
          "internalType": "bytes32",
          "name": "",
          "type": "bytes32"
        }
      ],
      "stateMutability": "view",
      "type": "function"
    },
    {
      "inputs": [
        {
          "internalType": "bytes32",
          "name": "role",
          "type": "bytes32"
        },
        {
          "internalType": "address",
          "name": "account",
          "type": "address"
        }
      ],
      "name": "grantRole",
      "outputs": [],
      "stateMutability": "nonpayable",
      "type": "function"
    },
    {
      "inputs": [
        {
          "internalType": "bytes32",
          "name": "role",
          "type": "bytes32"
        },
        {
          "internalType": "address",
          "name": "account",
          "type": "address"
        }
      ],
      "name": "hasRole",
      "outputs": [
        {
          "internalType": "bool",
          "name": "",
          "type": "bool"
        }
      ],
      "stateMutability": "view",
      "type": "function"
    },
    {
      "inputs": [
        {
          "internalType": "address",
          "name": "spender",
          "type": "address"
        },
        {
          "internalType": "uint256",
          "name": "addedValue",
          "type": "uint256"
        }
      ],
      "name": "increaseAllowance",
      "outputs": [
        {
          "internalType": "bool",
          "name": "",
          "type": "bool"
        }
      ],
      "stateMutability": "nonpayable",
      "type": "function"
    },
    {
      "inputs": [],
      "name": "name",
      "outputs": [
        {
          "internalType": "string",
          "name": "",
          "type": "string"
        }
      ],
      "stateMutability": "view",
      "type": "function"
    },
    {
      "inputs": [
        {
          "internalType": "bytes32",
          "name": "role",
          "type": "bytes32"
        },
        {
          "internalType": "address",
          "name": "account",
          "type": "address"
        }
      ],
      "name": "renounceRole",
      "outputs": [],
      "stateMutability": "nonpayable",
      "type": "function"
    },
    {
      "inputs": [
        {
          "internalType": "bytes32",
          "name": "role",
          "type": "bytes32"
        },
        {
          "internalType": "address",
          "name": "account",
          "type": "address"
        }
      ],
      "name": "revokeRole",
      "outputs": [],
      "stateMutability": "nonpayable",
      "type": "function"
    },
    {
      "inputs": [
        {
          "internalType": "bytes4",
          "name": "interfaceId",
          "type": "bytes4"
        }
      ],
      "name": "supportsInterface",
      "outputs": [
        {
          "internalType": "bool",
          "name": "",
          "type": "bool"
        }
      ],
      "stateMutability": "view",
      "type": "function"
    },
    {
      "inputs": [],
      "name": "symbol",
      "outputs": [
        {
          "internalType": "string",
          "name": "",
          "type": "string"
        }
      ],
      "stateMutability": "view",
      "type": "function"
    },
    {
      "inputs": [],
      "name": "totalSupply",
      "outputs": [
        {
          "internalType": "uint256",
          "name": "",
          "type": "uint256"
        }
      ],
      "stateMutability": "view",
      "type": "function"
    },
    {
      "inputs": [
        {
          "internalType": "uint256",
          "name": "snapshotId",
          "type": "uint256"
        }
      ],
      "name": "totalSupplyAt",
      "outputs": [
        {
          "internalType": "uint256",
          "name": "",
          "type": "uint256"
        }
      ],
      "stateMutability": "view",
      "type": "function"
    },
    {
      "inputs": [
        {
          "internalType": "address",
          "name": "recipient",
          "type": "address"
        },
        {
          "internalType": "uint256",
          "name": "amount",
          "type": "uint256"
        }
      ],
      "name": "transfer",
      "outputs": [
        {
          "internalType": "bool",
          "name": "",
          "type": "bool"
        }
      ],
      "stateMutability": "nonpayable",
      "type": "function"
    },
    {
      "inputs": [
        {
          "internalType": "address",
          "name": "sender",
          "type": "address"
        },
        {
          "internalType": "address",
          "name": "recipient",
          "type": "address"
        },
        {
          "internalType": "uint256",
          "name": "amount",
          "type": "uint256"
        }
      ],
      "name": "transferFrom",
      "outputs": [
        {
          "internalType": "bool",
          "name": "",
          "type": "bool"
        }
      ],
      "stateMutability": "nonpayable",
      "type": "function"
    },
    {
      "inputs": [
        {
          "internalType": "uint256",
          "name": "amount",
          "type": "uint256"
        }
      ],
      "name": "burn",
      "outputs": [],
      "stateMutability": "nonpayable",
      "type": "function"
    },
    {
      "inputs": [
        {
          "internalType": "address",
          "name": "_to",
          "type": "address"
        },
        {
          "internalType": "uint256",
          "name": "_value",
          "type": "uint256"
        },
        {
          "internalType": "bytes",
          "name": "_data",
          "type": "bytes"
        }
      ],
      "name": "transferAndCall",
      "outputs": [
        {
          "internalType": "bool",
          "name": "success",
          "type": "bool"
        }
      ],
      "stateMutability": "nonpayable",
      "type": "function"
    }
  ],
  "bytecode": "0x60806040526000600a60006101000a81548160ff0219169083151502179055503480156200002c57600080fd5b506040516200394638038062003946833981810160405281019062000052919062000949565b6040518060400160405280600c81526020017f57617364657220546f6b656e00000000000000000000000000000000000000008152506040518060400160405280600381526020017f57415300000000000000000000000000000000000000000000000000000000008152508160039080519060200190620000d692919062000882565b508060049080519060200190620000ef92919062000882565b50505062000110816b033b2e3c9fd0803ce80000006200017260201b60201c565b620001566040518060400160405280600c81526020017f57617364657220546f6b656e0000000000000000000000000000000000000000815250620002d760201b60201c565b6200016b6000801b826200035960201b60201c565b5062000c89565b600073ffffffffffffffffffffffffffffffffffffffff168273ffffffffffffffffffffffffffffffffffffffff161415620001e5576040517f08c379a0000000000000000000000000000000000000000000000000000000008152600401620001dc9062000aab565b60405180910390fd5b620001f9600083836200036f60201b60201c565b80600260008282546200020d919062000afb565b92505081905550806000808473ffffffffffffffffffffffffffffffffffffffff1673ffffffffffffffffffffffffffffffffffffffff168152602001908152602001600020600082825462000264919062000afb565b925050819055508173ffffffffffffffffffffffffffffffffffffffff16600073ffffffffffffffffffffffffffffffffffffffff167fddf252ad1be2c89b69c2b068fc378daa952ba7f163c4a11628f55a4df523b3ef83604051620002cb919062000acd565b60405180910390a35050565b600a60009054906101000a900460ff16156200032a576040517f08c379a0000000000000000000000000000000000000000000000000000000008152600401620003219062000a89565b60405180910390fd5b6200033b816200046a60201b60201c565b6001600a60006101000a81548160ff02191690831515021790555050565b6200036b82826200051960201b60201c565b5050565b620003878383836200060b60201b62000f5b1760201c565b600073ffffffffffffffffffffffffffffffffffffffff168373ffffffffffffffffffffffffffffffffffffffff161415620003e457620003ce826200061060201b60201c565b620003de6200067360201b60201c565b62000465565b600073ffffffffffffffffffffffffffffffffffffffff168273ffffffffffffffffffffffffffffffffffffffff16141562000441576200042b836200061060201b60201c565b6200043b6200067360201b60201c565b62000464565b62000452836200061060201b60201c565b62000463826200061060201b60201c565b5b5b505050565b6040518060800160405280604f8152602001620038f7604f91398051906020012081805190602001206040518060400160405280600181526020017f31000000000000000000000000000000000000000000000000000000000000008152508051906020012030620004e16200069760201b60201c565b60001b604051602001620004fa95949392919062000a2c565b60405160208183030381529060405280519060200120600b8190555050565b6200052b8282620006a460201b60201c565b620006075760016009600084815260200190815260200160002060000160008373ffffffffffffffffffffffffffffffffffffffff1673ffffffffffffffffffffffffffffffffffffffff16815260200190815260200160002060006101000a81548160ff021916908315150217905550620005ac6200070f60201b60201c565b73ffffffffffffffffffffffffffffffffffffffff168173ffffffffffffffffffffffffffffffffffffffff16837f2f8788117e7eff1d82e926ec794901d17c78024a50270940304540a733656f0d60405160405180910390a45b5050565b505050565b62000670600560008373ffffffffffffffffffffffffffffffffffffffff1673ffffffffffffffffffffffffffffffffffffffff16815260200190815260200160002062000664836200071760201b60201c565b6200075f60201b60201c565b50565b62000695600662000689620007f260201b60201c565b6200075f60201b60201c565b565b6000804690508091505090565b60006009600084815260200190815260200160002060000160008373ffffffffffffffffffffffffffffffffffffffff1673ffffffffffffffffffffffffffffffffffffffff16815260200190815260200160002060009054906101000a900460ff16905092915050565b600033905090565b60008060008373ffffffffffffffffffffffffffffffffffffffff1673ffffffffffffffffffffffffffffffffffffffff168152602001908152602001600020549050919050565b6000620007786008620007fc60201b62000f601760201c565b9050806200078f846000016200080a60201b60201c565b1015620007ed5782600001819080600181540180825580915050600190039060005260206000200160009091909190915055826001018290806001815401808255809150506001900390600052602060002001600090919091909150555b505050565b6000600254905090565b600081600001549050919050565b600080828054905014156200082357600090506200087d565b816001838054905062000837919062000b58565b815481106200086f577f4e487b7100000000000000000000000000000000000000000000000000000000600052603260045260246000fd5b906000526020600020015490505b919050565b828054620008909062000bdb565b90600052602060002090601f016020900481019282620008b4576000855562000900565b82601f10620008cf57805160ff191683800117855562000900565b8280016001018555821562000900579182015b82811115620008ff578251825591602001919060010190620008e2565b5b5090506200090f919062000913565b5090565b5b808211156200092e57600081600090555060010162000914565b5090565b600081519050620009438162000c6f565b92915050565b6000602082840312156200095c57600080fd5b60006200096c8482850162000932565b91505092915050565b620009808162000b93565b82525050565b620009918162000ba7565b82525050565b6000620009a6600e8362000aea565b91507f616c726561647920696e697465640000000000000000000000000000000000006000830152602082019050919050565b6000620009e8601f8362000aea565b91507f45524332303a206d696e7420746f20746865207a65726f2061646472657373006000830152602082019050919050565b62000a268162000bd1565b82525050565b600060a08201905062000a43600083018862000986565b62000a52602083018762000986565b62000a61604083018662000986565b62000a70606083018562000975565b62000a7f608083018462000986565b9695505050505050565b6000602082019050818103600083015262000aa48162000997565b9050919050565b6000602082019050818103600083015262000ac681620009d9565b9050919050565b600060208201905062000ae4600083018462000a1b565b92915050565b600082825260208201905092915050565b600062000b088262000bd1565b915062000b158362000bd1565b9250827fffffffffffffffffffffffffffffffffffffffffffffffffffffffffffffffff0382111562000b4d5762000b4c62000c11565b5b828201905092915050565b600062000b658262000bd1565b915062000b728362000bd1565b92508282101562000b885762000b8762000c11565b5b828203905092915050565b600062000ba08262000bb1565b9050919050565b6000819050919050565b600073ffffffffffffffffffffffffffffffffffffffff82169050919050565b6000819050919050565b6000600282049050600182168062000bf457607f821691505b6020821081141562000c0b5762000c0a62000c40565b5b50919050565b7f4e487b7100000000000000000000000000000000000000000000000000000000600052601160045260246000fd5b7f4e487b7100000000000000000000000000000000000000000000000000000000600052602260045260246000fd5b62000c7a8162000b93565b811462000c8657600080fd5b50565b612c5e8062000c996000396000f3fe608060405234801561001057600080fd5b506004361061018e5760003560e01c806339509351116100de57806395d89b4111610097578063a457c2d711610071578063a457c2d7146104d5578063a9059cbb14610505578063d547741f14610535578063dd62ed3e146105515761018e565b806395d89b4114610469578063981b24d014610487578063a217fddf146104b75761018e565b8063395093511461035d5780634000aea01461038d57806342966c68146103bd5780634ee2cd7e146103d957806370a082311461040957806391d14854146104395761018e565b806323b872dd1161014b5780632f2ff15d116101255780632f2ff15d146102e9578063313ce567146103055780633408e4701461032357806336568abe146103415761018e565b806323b872dd1461026b578063248a9ca31461029b578063282c51f3146102cb5761018e565b806301ffc9a71461019357806306fdde03146101c3578063095ea7b3146101e15780630f7e59701461021157806318160ddd1461022f57806320379ee51461024d575b600080fd5b6101ad60048036038101906101a89190611f08565b610581565b6040516101ba91906125dd565b60405180910390f35b6101cb6105fb565b6040516101d89190612613565b60405180910390f35b6101fb60048036038101906101f69190611e00565b61068d565b60405161020891906125dd565b60405180910390f35b6102196106ab565b6040516102269190612613565b60405180910390f35b6102376106e4565b6040516102449190612815565b60405180910390f35b6102556106ee565b60405161026291906125f8565b60405180910390f35b61028560048036038101906102809190611db1565b6106f8565b60405161029291906125dd565b60405180910390f35b6102b560048036038101906102b09190611ea3565b6107f9565b6040516102c291906125f8565b60405180910390f35b6102d3610819565b6040516102e091906125f8565b60405180910390f35b61030360048036038101906102fe9190611ecc565b61083d565b005b61030d6108a3565b60405161031a9190612860565b60405180910390f35b61032b6108ac565b6040516103389190612815565b60405180910390f35b61035b60048036038101906103569190611ecc565b6108b9565b005b61037760048036038101906103729190611e00565b61093c565b60405161038491906125dd565b60405180910390f35b6103a760048036038101906103a29190611e3c565b6109e8565b6040516103b491906125dd565b60405180910390f35b6103d760048036038101906103d29190611f31565b610af9565b005b6103f360048036038101906103ee9190611e00565b610b6f565b6040516104009190612815565b60405180910390f35b610423600480360381019061041e9190611d4c565b610bdf565b6040516104309190612815565b60405180910390f35b610453600480360381019061044e9190611ecc565b610c27565b60405161046091906125dd565b60405180910390f35b610471610c92565b60405161047e9190612613565b60405180910390f35b6104a1600480360381019061049c9190611f31565b610d24565b6040516104ae9190612815565b60405180910390f35b6104bf610d55565b6040516104cc91906125f8565b60405180910390f35b6104ef60048036038101906104ea9190611e00565b610d5c565b6040516104fc91906125dd565b60405180910390f35b61051f600480360381019061051a9190611e00565b610e50565b60405161052c91906125dd565b60405180910390f35b61054f600480360381019061054a9190611ecc565b610e6e565b005b61056b60048036038101906105669190611d75565b610ed4565b6040516105789190612815565b60405180910390f35b60007f7965db0b000000000000000000000000000000000000000000000000000000007bffffffffffffffffffffffffffffffffffffffffffffffffffffffff1916827bffffffffffffffffffffffffffffffffffffffffffffffffffffffff191614806105f457506105f382610f6e565b5b9050919050565b60606003805461060a90612a9c565b80601f016020809104026020016040519081016040528092919081815260200182805461063690612a9c565b80156106835780601f1061065857610100808354040283529160200191610683565b820191906000526020600020905b81548152906001019060200180831161066657829003601f168201915b5050505050905090565b60006106a161069a610fd8565b8484610fe0565b6001905092915050565b6040518060400160405280600181526020017f310000000000000000000000000000000000000000000000000000000000000081525081565b6000600254905090565b6000600b54905090565b60006107058484846111ab565b6000600160008673ffffffffffffffffffffffffffffffffffffffff1673ffffffffffffffffffffffffffffffffffffffff1681526020019081526020016000206000610750610fd8565b73ffffffffffffffffffffffffffffffffffffffff1673ffffffffffffffffffffffffffffffffffffffff168152602001908152602001600020549050828110156107d0576040517f08c379a00000000000000000000000000000000000000000000000000000000081526004016107c790612735565b60405180910390fd5b6107ed856107dc610fd8565b85846107e8919061299b565b610fe0565b60019150509392505050565b600060096000838152602001908152602001600020600101549050919050565b7f3c11d16cbaffd01df69ce1c404f6340ee057498f5f00246190ea54220576a84881565b610856610849836107f9565b610851610fd8565b610c27565b610895576040517f08c379a000000000000000000000000000000000000000000000000000000000815260040161088c90612675565b60405180910390fd5b61089f828261142a565b5050565b60006012905090565b6000804690508091505090565b6108c1610fd8565b73ffffffffffffffffffffffffffffffffffffffff168173ffffffffffffffffffffffffffffffffffffffff161461092e576040517f08c379a0000000000000000000000000000000000000000000000000000000008152600401610925906127f5565b60405180910390fd5b610938828261150b565b5050565b60006109de610949610fd8565b848460016000610957610fd8565b73ffffffffffffffffffffffffffffffffffffffff1673ffffffffffffffffffffffffffffffffffffffff16815260200190815260200160002060008873ffffffffffffffffffffffffffffffffffffffff1673ffffffffffffffffffffffffffffffffffffffff168152602001908152602001600020546109d99190612914565b610fe0565b6001905092915050565b60006109f48484610e50565b508373ffffffffffffffffffffffffffffffffffffffff16610a14610fd8565b73ffffffffffffffffffffffffffffffffffffffff167fe19260aff97b920c7df27010903aeb9c8d2be5d310a2c67824cf3f15396e4c168585604051610a5b929190612830565b60405180910390a3610a6c846115ed565b15610aee5760008490508073ffffffffffffffffffffffffffffffffffffffff1663a4c0ed36610a9a610fd8565b86866040518463ffffffff1660e01b8152600401610aba9392919061259f565b600060405180830381600087803b158015610ad457600080fd5b505af1158015610ae8573d6000803e3d6000fd5b50505050505b600190509392505050565b610b237f3c11d16cbaffd01df69ce1c404f6340ee057498f5f00246190ea54220576a84833610c27565b610b62576040517f08c379a0000000000000000000000000000000000000000000000000000000008152600401610b5990612715565b60405180910390fd5b610b6c3382611600565b50565b6000806000610bbc84600560008873ffffffffffffffffffffffffffffffffffffffff1673ffffffffffffffffffffffffffffffffffffffff1681526020019081526020016000206117d4565b9150915081610bd357610bce85610bdf565b610bd5565b805b9250505092915050565b60008060008373ffffffffffffffffffffffffffffffffffffffff1673ffffffffffffffffffffffffffffffffffffffff168152602001908152602001600020549050919050565b60006009600084815260200190815260200160002060000160008373ffffffffffffffffffffffffffffffffffffffff1673ffffffffffffffffffffffffffffffffffffffff16815260200190815260200160002060009054906101000a900460ff16905092915050565b606060048054610ca190612a9c565b80601f0160208091040260200160405190810160405280929190818152602001828054610ccd90612a9c565b8015610d1a5780601f10610cef57610100808354040283529160200191610d1a565b820191906000526020600020905b815481529060010190602001808311610cfd57829003601f168201915b5050505050905090565b6000806000610d348460066117d4565b9150915081610d4a57610d456106e4565b610d4c565b805b92505050919050565b6000801b81565b60008060016000610d6b610fd8565b73ffffffffffffffffffffffffffffffffffffffff1673ffffffffffffffffffffffffffffffffffffffff16815260200190815260200160002060008573ffffffffffffffffffffffffffffffffffffffff1673ffffffffffffffffffffffffffffffffffffffff16815260200190815260200160002054905082811015610e28576040517f08c379a0000000000000000000000000000000000000000000000000000000008152600401610e1f906127d5565b60405180910390fd5b610e45610e33610fd8565b858584610e40919061299b565b610fe0565b600191505092915050565b6000610e64610e5d610fd8565b84846111ab565b6001905092915050565b610e87610e7a836107f9565b610e82610fd8565b610c27565b610ec6576040517f08c379a0000000000000000000000000000000000000000000000000000000008152600401610ebd906126f5565b60405180910390fd5b610ed0828261150b565b5050565b6000600160008473ffffffffffffffffffffffffffffffffffffffff1673ffffffffffffffffffffffffffffffffffffffff16815260200190815260200160002060008373ffffffffffffffffffffffffffffffffffffffff1673ffffffffffffffffffffffffffffffffffffffff16815260200190815260200160002054905092915050565b505050565b600081600001549050919050565b60007f01ffc9a7000000000000000000000000000000000000000000000000000000007bffffffffffffffffffffffffffffffffffffffffffffffffffffffff1916827bffffffffffffffffffffffffffffffffffffffffffffffffffffffff1916149050919050565b600033905090565b600073ffffffffffffffffffffffffffffffffffffffff168373ffffffffffffffffffffffffffffffffffffffff161415611050576040517f08c379a000000000000000000000000000000000000000000000000000000000815260040161104790612795565b60405180910390fd5b600073ffffffffffffffffffffffffffffffffffffffff168273ffffffffffffffffffffffffffffffffffffffff1614156110c0576040517f08c379a00000000000000000000000000000000000000000000000000000000081526004016110b7906126b5565b60405180910390fd5b80600160008573ffffffffffffffffffffffffffffffffffffffff1673ffffffffffffffffffffffffffffffffffffffff16815260200190815260200160002060008473ffffffffffffffffffffffffffffffffffffffff1673ffffffffffffffffffffffffffffffffffffffff168152602001908152602001600020819055508173ffffffffffffffffffffffffffffffffffffffff168373ffffffffffffffffffffffffffffffffffffffff167f8c5be1e5ebec7d5bd14f71427d1e84f3dd0314c0f7b2291e5b200ac8c7c3b9258360405161119e9190612815565b60405180910390a3505050565b600073ffffffffffffffffffffffffffffffffffffffff168373ffffffffffffffffffffffffffffffffffffffff16141561121b576040517f08c379a000000000000000000000000000000000000000000000000000000000815260040161121290612775565b60405180910390fd5b600073ffffffffffffffffffffffffffffffffffffffff168273ffffffffffffffffffffffffffffffffffffffff16141561128b576040517f08c379a000000000000000000000000000000000000000000000000000000000815260040161128290612655565b60405180910390fd5b6112968383836118f2565b60008060008573ffffffffffffffffffffffffffffffffffffffff1673ffffffffffffffffffffffffffffffffffffffff1681526020019081526020016000205490508181101561131c576040517f08c379a0000000000000000000000000000000000000000000000000000000008152600401611313906126d5565b60405180910390fd5b8181611328919061299b565b6000808673ffffffffffffffffffffffffffffffffffffffff1673ffffffffffffffffffffffffffffffffffffffff16815260200190815260200160002081905550816000808573ffffffffffffffffffffffffffffffffffffffff1673ffffffffffffffffffffffffffffffffffffffff16815260200190815260200160002060008282546113b89190612914565b925050819055508273ffffffffffffffffffffffffffffffffffffffff168473ffffffffffffffffffffffffffffffffffffffff167fddf252ad1be2c89b69c2b068fc378daa952ba7f163c4a11628f55a4df523b3ef8460405161141c9190612815565b60405180910390a350505050565b6114348282610c27565b6115075760016009600084815260200190815260200160002060000160008373ffffffffffffffffffffffffffffffffffffffff1673ffffffffffffffffffffffffffffffffffffffff16815260200190815260200160002060006101000a81548160ff0219169083151502179055506114ac610fd8565b73ffffffffffffffffffffffffffffffffffffffff168173ffffffffffffffffffffffffffffffffffffffff16837f2f8788117e7eff1d82e926ec794901d17c78024a50270940304540a733656f0d60405160405180910390a45b5050565b6115158282610c27565b156115e95760006009600084815260200190815260200160002060000160008373ffffffffffffffffffffffffffffffffffffffff1673ffffffffffffffffffffffffffffffffffffffff16815260200190815260200160002060006101000a81548160ff02191690831515021790555061158e610fd8565b73ffffffffffffffffffffffffffffffffffffffff168173ffffffffffffffffffffffffffffffffffffffff16837ff6391f5c32d9c69d2a47ea670b442974b53935d1edc7fd64eb21e047a839171b60405160405180910390a45b5050565b600080823b905060008111915050919050565b600073ffffffffffffffffffffffffffffffffffffffff168273ffffffffffffffffffffffffffffffffffffffff161415611670576040517f08c379a000000000000000000000000000000000000000000000000000000000815260040161166790612755565b60405180910390fd5b61167c826000836118f2565b60008060008473ffffffffffffffffffffffffffffffffffffffff1673ffffffffffffffffffffffffffffffffffffffff16815260200190815260200160002054905081811015611702576040517f08c379a00000000000000000000000000000000000000000000000000000000081526004016116f990612695565b60405180910390fd5b818161170e919061299b565b6000808573ffffffffffffffffffffffffffffffffffffffff1673ffffffffffffffffffffffffffffffffffffffff168152602001908152602001600020819055508160026000828254611762919061299b565b92505081905550600073ffffffffffffffffffffffffffffffffffffffff168373ffffffffffffffffffffffffffffffffffffffff167fddf252ad1be2c89b69c2b068fc378daa952ba7f163c4a11628f55a4df523b3ef846040516117c79190612815565b60405180910390a3505050565b6000806000841161181a576040517f08c379a0000000000000000000000000000000000000000000000000000000008152600401611811906127b5565b60405180910390fd5b6118246008610f60565b841115611866576040517f08c379a000000000000000000000000000000000000000000000000000000000815260040161185d90612635565b60405180910390fd5b600061187e85856000016119ac90919063ffffffff16565b9050836000018054905081141561189c5760008092509250506118eb565b60018460010182815481106118da577f4e487b7100000000000000000000000000000000000000000000000000000000600052603260045260246000fd5b906000526020600020015492509250505b9250929050565b6118fd838383610f5b565b600073ffffffffffffffffffffffffffffffffffffffff168373ffffffffffffffffffffffffffffffffffffffff1614156119485761193b82611ad2565b611943611b25565b6119a7565b600073ffffffffffffffffffffffffffffffffffffffff168273ffffffffffffffffffffffffffffffffffffffff1614156119935761198683611ad2565b61198e611b25565b6119a6565b61199c83611ad2565b6119a582611ad2565b5b5b505050565b600080838054905014156119c35760009050611acc565b600080848054905090505b80821015611a4d5760006119e28383611b39565b905084868281548110611a1e577f4e487b7100000000000000000000000000000000000000000000000000000000600052603260045260246000fd5b90600052602060002001541115611a3757809150611a47565b600181611a449190612914565b92505b506119ce565b600082118015611aab57508385600184611a67919061299b565b81548110611a9e577f4e487b7100000000000000000000000000000000000000000000000000000000600052603260045260246000fd5b9060005260206000200154145b15611ac657600182611abd919061299b565b92505050611acc565b81925050505b92915050565b611b22600560008373ffffffffffffffffffffffffffffffffffffffff1673ffffffffffffffffffffffffffffffffffffffff168152602001908152602001600020611b1d83610bdf565b611ba0565b50565b611b376006611b326106e4565b611ba0565b565b600060028083611b499190612ace565b600285611b569190612ace565b611b609190612914565b611b6a919061296a565b600283611b77919061296a565b600285611b84919061296a565b611b8e9190612914565b611b989190612914565b905092915050565b6000611bac6008610f60565b905080611bbb84600001611c1d565b1015611c185782600001819080600181540180825580915050600190039060005260206000200160009091909190915055826001018290806001815401808255809150506001900390600052602060002001600090919091909150555b505050565b60008082805490501415611c345760009050611c8b565b8160018380549050611c46919061299b565b81548110611c7d577f4e487b7100000000000000000000000000000000000000000000000000000000600052603260045260246000fd5b906000526020600020015490505b919050565b6000611ca3611c9e846128ac565b61287b565b905082815260208101848484011115611cbb57600080fd5b611cc6848285612a5a565b509392505050565b600081359050611cdd81612bcc565b92915050565b600081359050611cf281612be3565b92915050565b600081359050611d0781612bfa565b92915050565b600082601f830112611d1e57600080fd5b8135611d2e848260208601611c90565b91505092915050565b600081359050611d4681612c11565b92915050565b600060208284031215611d5e57600080fd5b6000611d6c84828501611cce565b91505092915050565b60008060408385031215611d8857600080fd5b6000611d9685828601611cce565b9250506020611da785828601611cce565b9150509250929050565b600080600060608486031215611dc657600080fd5b6000611dd486828701611cce565b9350506020611de586828701611cce565b9250506040611df686828701611d37565b9150509250925092565b60008060408385031215611e1357600080fd5b6000611e2185828601611cce565b9250506020611e3285828601611d37565b9150509250929050565b600080600060608486031215611e5157600080fd5b6000611e5f86828701611cce565b9350506020611e7086828701611d37565b925050604084013567ffffffffffffffff811115611e8d57600080fd5b611e9986828701611d0d565b9150509250925092565b600060208284031215611eb557600080fd5b6000611ec384828501611ce3565b91505092915050565b60008060408385031215611edf57600080fd5b6000611eed85828601611ce3565b9250506020611efe85828601611cce565b9150509250929050565b600060208284031215611f1a57600080fd5b6000611f2884828501611cf8565b91505092915050565b600060208284031215611f4357600080fd5b6000611f5184828501611d37565b91505092915050565b611f63816129cf565b82525050565b611f72816129e1565b82525050565b611f81816129ed565b82525050565b6000611f92826128dc565b611f9c81856128f2565b9350611fac818560208601612a69565b611fb581612bbb565b840191505092915050565b6000611fcb826128e7565b611fd58185612903565b9350611fe5818560208601612a69565b611fee81612bbb565b840191505092915050565b6000612006601d83612903565b91507f4552433230536e617073686f743a206e6f6e6578697374656e742069640000006000830152602082019050919050565b6000612046602383612903565b91507f45524332303a207472616e7366657220746f20746865207a65726f206164647260008301527f65737300000000000000000000000000000000000000000000000000000000006020830152604082019050919050565b60006120ac602f83612903565b91507f416363657373436f6e74726f6c3a2073656e646572206d75737420626520616e60008301527f2061646d696e20746f206772616e7400000000000000000000000000000000006020830152604082019050919050565b6000612112602283612903565b91507f45524332303a206275726e20616d6f756e7420657863656564732062616c616e60008301527f63650000000000000000000000000000000000000000000000000000000000006020830152604082019050919050565b6000612178602283612903565b91507f45524332303a20617070726f766520746f20746865207a65726f20616464726560008301527f73730000000000000000000000000000000000000000000000000000000000006020830152604082019050919050565b60006121de602683612903565b91507f45524332303a207472616e7366657220616d6f756e742065786365656473206260008301527f616c616e636500000000000000000000000000000000000000000000000000006020830152604082019050919050565b6000612244603083612903565b91507f416363657373436f6e74726f6c3a2073656e646572206d75737420626520616e60008301527f2061646d696e20746f207265766f6b65000000000000000000000000000000006020830152604082019050919050565b60006122aa601683612903565b91507f43616c6c6572206973206e6f742061206275726e6572000000000000000000006000830152602082019050919050565b60006122ea602883612903565b91507f45524332303a207472616e7366657220616d6f756e742065786365656473206160008301527f6c6c6f77616e63650000000000000000000000000000000000000000000000006020830152604082019050919050565b6000612350602183612903565b91507f45524332303a206275726e2066726f6d20746865207a65726f2061646472657360008301527f73000000000000000000000000000000000000000000000000000000000000006020830152604082019050919050565b60006123b6602583612903565b91507f45524332303a207472616e736665722066726f6d20746865207a65726f20616460008301527f64726573730000000000000000000000000000000000000000000000000000006020830152604082019050919050565b600061241c602483612903565b91507f45524332303a20617070726f76652066726f6d20746865207a65726f2061646460008301527f72657373000000000000000000000000000000000000000000000000000000006020830152604082019050919050565b6000612482601683612903565b91507f4552433230536e617073686f743a2069642069732030000000000000000000006000830152602082019050919050565b60006124c2602583612903565b91507f45524332303a2064656372656173656420616c6c6f77616e63652062656c6f7760008301527f207a65726f0000000000000000000000000000000000000000000000000000006020830152604082019050919050565b6000612528602f83612903565b91507f416363657373436f6e74726f6c3a2063616e206f6e6c792072656e6f756e636560008301527f20726f6c657320666f722073656c6600000000000000000000000000000000006020830152604082019050919050565b61258a81612a43565b82525050565b61259981612a4d565b82525050565b60006060820190506125b46000830186611f5a565b6125c16020830185612581565b81810360408301526125d38184611f87565b9050949350505050565b60006020820190506125f26000830184611f69565b92915050565b600060208201905061260d6000830184611f78565b92915050565b6000602082019050818103600083015261262d8184611fc0565b905092915050565b6000602082019050818103600083015261264e81611ff9565b9050919050565b6000602082019050818103600083015261266e81612039565b9050919050565b6000602082019050818103600083015261268e8161209f565b9050919050565b600060208201905081810360008301526126ae81612105565b9050919050565b600060208201905081810360008301526126ce8161216b565b9050919050565b600060208201905081810360008301526126ee816121d1565b9050919050565b6000602082019050818103600083015261270e81612237565b9050919050565b6000602082019050818103600083015261272e8161229d565b9050919050565b6000602082019050818103600083015261274e816122dd565b9050919050565b6000602082019050818103600083015261276e81612343565b9050919050565b6000602082019050818103600083015261278e816123a9565b9050919050565b600060208201905081810360008301526127ae8161240f565b9050919050565b600060208201905081810360008301526127ce81612475565b9050919050565b600060208201905081810360008301526127ee816124b5565b9050919050565b6000602082019050818103600083015261280e8161251b565b9050919050565b600060208201905061282a6000830184612581565b92915050565b60006040820190506128456000830185612581565b81810360208301526128578184611f87565b90509392505050565b60006020820190506128756000830184612590565b92915050565b6000604051905081810181811067ffffffffffffffff821117156128a2576128a1612b8c565b5b8060405250919050565b600067ffffffffffffffff8211156128c7576128c6612b8c565b5b601f19601f8301169050602081019050919050565b600081519050919050565b600081519050919050565b600082825260208201905092915050565b600082825260208201905092915050565b600061291f82612a43565b915061292a83612a43565b9250827fffffffffffffffffffffffffffffffffffffffffffffffffffffffffffffffff0382111561295f5761295e612aff565b5b828201905092915050565b600061297582612a43565b915061298083612a43565b9250826129905761298f612b2e565b5b828204905092915050565b60006129a682612a43565b91506129b183612a43565b9250828210156129c4576129c3612aff565b5b828203905092915050565b60006129da82612a23565b9050919050565b60008115159050919050565b6000819050919050565b60007fffffffff0000000000000000000000000000000000000000000000000000000082169050919050565b600073ffffffffffffffffffffffffffffffffffffffff82169050919050565b6000819050919050565b600060ff82169050919050565b82818337600083830152505050565b60005b83811015612a87578082015181840152602081019050612a6c565b83811115612a96576000848401525b50505050565b60006002820490506001821680612ab457607f821691505b60208210811415612ac857612ac7612b5d565b5b50919050565b6000612ad982612a43565b9150612ae483612a43565b925082612af457612af3612b2e565b5b828206905092915050565b7f4e487b7100000000000000000000000000000000000000000000000000000000600052601160045260246000fd5b7f4e487b7100000000000000000000000000000000000000000000000000000000600052601260045260246000fd5b7f4e487b7100000000000000000000000000000000000000000000000000000000600052602260045260246000fd5b7f4e487b7100000000000000000000000000000000000000000000000000000000600052604160045260246000fd5b6000601f19601f8301169050919050565b612bd5816129cf565b8114612be057600080fd5b50565b612bec816129ed565b8114612bf757600080fd5b50565b612c03816129f7565b8114612c0e57600080fd5b50565b612c1a81612a43565b8114612c2557600080fd5b5056fea264697066735822122098e8538e0f947dd83e8b01727c79a8f9d3fb01da8047c32e37811bcae2b881db64736f6c63430008000033454950373132446f6d61696e28737472696e67206e616d652c737472696e672076657273696f6e2c6164647265737320766572696679696e67436f6e74726163742c627974657333322073616c7429",
  "immutableReferences": {},
  "source": "\r\n// SPDX-License-Identifier: MIT\r\npragma solidity ^0.8.0;\r\n\r\nimport \"@openzeppelin/contracts/token/ERC20/extensions/ERC20Snapshot.sol\";\r\nimport \"@openzeppelin/contracts/access/AccessControl.sol\";\r\nimport \"./EIP712/EIP712Base.sol\";\r\nimport \"./ERC677/IERC677Receiver.sol\";\r\n\r\n\r\n// ERC20 token\r\n// - Burnable\r\n// - Snapshot\r\n// - EIP712 - human readable signed messages\r\n// - ERC677 - transfer and call - approve tokens and call a function on another contract in one transaction\r\ncontract WasderToken is ERC20Snapshot, AccessControl, EIP712Base {\r\n\r\n    bytes32 public constant BURNER_ROLE = keccak256(\"BURNER_ROLE\");\r\n\r\n    constructor(address to) ERC20(\"Wasder Token\", \"WAS\") {\r\n        _mint(to, 1000000000 * 10**18 ); //1,000,000,000 tokens\r\n\r\n        _initializeEIP712(\"Wasder Token\"); // domain\r\n\r\n        _setupRole(DEFAULT_ADMIN_ROLE, to);\r\n\r\n    }\r\n\r\n    function burn(uint256 amount) public {\r\n        require(hasRole(BURNER_ROLE, msg.sender), \"Caller is not a burner\");\r\n\r\n        _burn(msg.sender, amount);\r\n    }\r\n\r\n\r\n    // ERC677 Transfer and call\r\n    event Transfer(address indexed from, address indexed to, uint256 value, bytes data);\r\n\r\n    /**\r\n    * @dev transfer token to a contract address with additional data if the recipient is a contact.\r\n    * @param _to The address to transfer to.\r\n    * @param _value The amount to be transferred.\r\n    * @param _data The extra data to be passed to the receiving contract.\r\n    */\r\n    function transferAndCall(address _to, uint _value, bytes memory _data)\r\n        public\r\n        returns (bool success)\r\n    {\r\n        super.transfer(_to, _value);\r\n        emit Transfer(_msgSender(), _to, _value, _data);\r\n        if (isContract(_to)) {\r\n            IERC677Receiver receiver = IERC677Receiver(_to);\r\n            receiver.onTokenTransfer(_msgSender(), _value, _data);\r\n        }\r\n        return true;\r\n    }\r\n\r\n    function isContract(address _addr) private view returns (bool hasCode)\r\n    {\r\n        uint length;\r\n        assembly { length := extcodesize(_addr) }\r\n        return length > 0;\r\n    }\r\n\r\n}",
  "sourcePath": "C:/repos/wasder-token/contracts/WasderToken.sol",
  "compiler": {
    "name": "solc",
    "version": "0.8.0+commit.c7dfd78e.Emscripten.clang"
  },
  "schemaVersion": "3.3.4",
  "updatedAt": "2021-04-26T05:00:04.756Z",
  "devdoc": {
    "kind": "dev",
    "methods": {
      "allowance(address,address)": {
        "details": "See {IERC20-allowance}."
      },
      "approve(address,uint256)": {
        "details": "See {IERC20-approve}. Requirements: - `spender` cannot be the zero address."
      },
      "balanceOf(address)": {
        "details": "See {IERC20-balanceOf}."
      },
      "balanceOfAt(address,uint256)": {
        "details": "Retrieves the balance of `account` at the time `snapshotId` was created."
      },
      "decimals()": {
        "details": "Returns the number of decimals used to get its user representation. For example, if `decimals` equals `2`, a balance of `505` tokens should be displayed to a user as `5,05` (`505 / 10 ** 2`). Tokens usually opt for a value of 18, imitating the relationship between Ether and Wei. This is the value {ERC20} uses, unless this function is overloaded; NOTE: This information is only used for _display_ purposes: it in no way affects any of the arithmetic of the contract, including {IERC20-balanceOf} and {IERC20-transfer}."
      },
      "decreaseAllowance(address,uint256)": {
        "details": "Atomically decreases the allowance granted to `spender` by the caller. This is an alternative to {approve} that can be used as a mitigation for problems described in {IERC20-approve}. Emits an {Approval} event indicating the updated allowance. Requirements: - `spender` cannot be the zero address. - `spender` must have allowance for the caller of at least `subtractedValue`."
      },
      "getRoleAdmin(bytes32)": {
        "details": "Returns the admin role that controls `role`. See {grantRole} and {revokeRole}. To change a role's admin, use {_setRoleAdmin}."
      },
      "grantRole(bytes32,address)": {
        "details": "Grants `role` to `account`. If `account` had not been already granted `role`, emits a {RoleGranted} event. Requirements: - the caller must have ``role``'s admin role."
      },
      "hasRole(bytes32,address)": {
        "details": "Returns `true` if `account` has been granted `role`."
      },
      "increaseAllowance(address,uint256)": {
        "details": "Atomically increases the allowance granted to `spender` by the caller. This is an alternative to {approve} that can be used as a mitigation for problems described in {IERC20-approve}. Emits an {Approval} event indicating the updated allowance. Requirements: - `spender` cannot be the zero address."
      },
      "name()": {
        "details": "Returns the name of the token."
      },
      "renounceRole(bytes32,address)": {
        "details": "Revokes `role` from the calling account. Roles are often managed via {grantRole} and {revokeRole}: this function's purpose is to provide a mechanism for accounts to lose their privileges if they are compromised (such as when a trusted device is misplaced). If the calling account had been granted `role`, emits a {RoleRevoked} event. Requirements: - the caller must be `account`."
      },
      "revokeRole(bytes32,address)": {
        "details": "Revokes `role` from `account`. If `account` had been granted `role`, emits a {RoleRevoked} event. Requirements: - the caller must have ``role``'s admin role."
      },
      "supportsInterface(bytes4)": {
        "details": "See {IERC165-supportsInterface}."
      },
      "symbol()": {
        "details": "Returns the symbol of the token, usually a shorter version of the name."
      },
      "totalSupply()": {
        "details": "See {IERC20-totalSupply}."
      },
      "totalSupplyAt(uint256)": {
        "details": "Retrieves the total supply at the time `snapshotId` was created."
      },
      "transfer(address,uint256)": {
        "details": "See {IERC20-transfer}. Requirements: - `recipient` cannot be the zero address. - the caller must have a balance of at least `amount`."
      },
      "transferAndCall(address,uint256,bytes)": {
        "details": "transfer token to a contract address with additional data if the recipient is a contact.",
        "params": {
          "_data": "The extra data to be passed to the receiving contract.",
          "_to": "The address to transfer to.",
          "_value": "The amount to be transferred."
        }
      },
      "transferFrom(address,address,uint256)": {
        "details": "See {IERC20-transferFrom}. Emits an {Approval} event indicating the updated allowance. This is not required by the EIP. See the note at the beginning of {ERC20}. Requirements: - `sender` and `recipient` cannot be the zero address. - `sender` must have a balance of at least `amount`. - the caller must have allowance for ``sender``'s tokens of at least `amount`."
      }
    },
    "version": 1
  },
  "userdoc": {
    "kind": "user",
    "methods": {},
    "version": 1
  }
}